{
  "_format": "hh-sol-artifact-1",
  "contractName": "EmailClassification",
  "sourceName": "contracts/EmailClassification.sol",
  "abi": [
    {
      "anonymous": false,
      "inputs": [
        {
          "indexed": true,
          "internalType": "address",
          "name": "user",
          "type": "address"
        },
        {
          "indexed": false,
          "internalType": "string",
          "name": "userId",
          "type": "string"
        },
        {
          "indexed": false,
          "internalType": "string",
          "name": "emailId",
          "type": "string"
        },
        {
          "indexed": false,
          "internalType": "string",
          "name": "label",
          "type": "string"
        },
        {
          "indexed": false,
          "internalType": "string",
          "name": "reasoning",
          "type": "string"
        }
      ],
      "name": "ClassificationSaved",
      "type": "event"
    },
    {
      "inputs": [
        {
          "internalType": "string",
          "name": "_userId",
          "type": "string"
        },
        {
          "components": [
            {
              "internalType": "string",
              "name": "emailId",
              "type": "string"
            },
            {
              "internalType": "string",
              "name": "label",
              "type": "string"
            },
            {
              "internalType": "string",
              "name": "reasoning",
              "type": "string"
            }
          ],
          "internalType": "struct EmailClassification.ClassificationInput[]",
          "name": "_entries",
          "type": "tuple[]"
        }
      ],
      "name": "bulkSaveClassifications",
      "outputs": [],
      "stateMutability": "nonpayable",
      "type": "function"
    },
    {
      "inputs": [
        {
          "internalType": "string",
          "name": "_userId",
          "type": "string"
        }
      ],
      "name": "getClassificationsByUserId",
      "outputs": [
        {
          "internalType": "string",
          "name": "userId",
          "type": "string"
        },
        {
          "components": [
            {
              "internalType": "string",
              "name": "emailId",
              "type": "string"
            },
            {
              "internalType": "string",
              "name": "label",
              "type": "string"
            },
            {
              "internalType": "string",
              "name": "reasoning",
              "type": "string"
            }
          ],
          "internalType": "struct EmailClassification.Classification[]",
          "name": "classifications",
          "type": "tuple[]"
        }
      ],
      "stateMutability": "view",
      "type": "function"
    }
  ],
  "bytecode": "0x608060405234801561001057600080fd5b506111da806100206000396000f3fe608060405234801561001057600080fd5b50600436106100365760003560e01c80632c0508e91461003b5780638ba4641914610057575b600080fd5b61005560048036038101906100509190610a15565b610088565b005b610071600480360381019061006c9190610a8d565b610337565b60405161007f929190610cbf565b60405180910390f35b60008060003373ffffffffffffffffffffffffffffffffffffffff1673ffffffffffffffffffffffffffffffffffffffff16815260200190815260200160002060000180546100d690610d25565b90500361018a57816000803373ffffffffffffffffffffffffffffffffffffffff1673ffffffffffffffffffffffffffffffffffffffff168152602001908152602001600020600001908161012b9190610f0c565b503360018360405161013d919061101a565b908152602001604051809103902060006101000a81548173ffffffffffffffffffffffffffffffffffffffff021916908373ffffffffffffffffffffffffffffffffffffffff1602179055505b60005b815181101561033257600060405180606001604052808484815181106101b6576101b5611031565b5b60200260200101516000015181526020018484815181106101da576101d9611031565b5b60200260200101516020015181526020018484815181106101fe576101fd611031565b5b60200260200101516040015181525090506000803373ffffffffffffffffffffffffffffffffffffffff1673ffffffffffffffffffffffffffffffffffffffff168152602001908152602001600020600101819080600181540180825580915050600190039060005260206000209060030201600090919091909150600082015181600001908161028f9190610f0c565b5060208201518160010190816102a59190610f0c565b5060408201518160020190816102bb9190610f0c565b5050503373ffffffffffffffffffffffffffffffffffffffff167f50ea61d0389ed8aae85338dabab24d8125f67e46470fde2f477b4d82d1b0224b858360000151846020015185604001516040516103169493929190611060565b60405180910390a250808061032a906110f0565b91505061018d565b505050565b606080600060018460405161034c919061101a565b908152602001604051809103902060009054906101000a900473ffffffffffffffffffffffffffffffffffffffff169050600073ffffffffffffffffffffffffffffffffffffffff168173ffffffffffffffffffffffffffffffffffffffff16036103ec576040517f08c379a00000000000000000000000000000000000000000000000000000000081526004016103e390611184565b60405180910390fd5b6000808273ffffffffffffffffffffffffffffffffffffffff1673ffffffffffffffffffffffffffffffffffffffff1681526020019081526020016000206000016000808373ffffffffffffffffffffffffffffffffffffffff1673ffffffffffffffffffffffffffffffffffffffff16815260200190815260200160002060010181805461047a90610d25565b80601f01602080910402602001604051908101604052809291908181526020018280546104a690610d25565b80156104f35780601f106104c8576101008083540402835291602001916104f3565b820191906000526020600020905b8154815290600101906020018083116104d657829003601f168201915b5050505050915080805480602002602001604051908101604052809291908181526020016000905b82821015610703578382906000526020600020906003020160405180606001604052908160008201805461054e90610d25565b80601f016020809104026020016040519081016040528092919081815260200182805461057a90610d25565b80156105c75780601f1061059c576101008083540402835291602001916105c7565b820191906000526020600020905b8154815290600101906020018083116105aa57829003601f168201915b505050505081526020016001820180546105e090610d25565b80601f016020809104026020016040519081016040528092919081815260200182805461060c90610d25565b80156106595780601f1061062e57610100808354040283529160200191610659565b820191906000526020600020905b81548152906001019060200180831161063c57829003601f168201915b5050505050815260200160028201805461067290610d25565b80601f016020809104026020016040519081016040528092919081815260200182805461069e90610d25565b80156106eb5780601f106106c0576101008083540402835291602001916106eb565b820191906000526020600020905b8154815290600101906020018083116106ce57829003601f168201915b5050505050815250508152602001906001019061051b565b5050505090509250925050915091565b6000604051905090565b600080fd5b600080fd5b600080fd5b600080fd5b6000601f19601f8301169050919050565b7f4e487b7100000000000000000000000000000000000000000000000000000000600052604160045260246000fd5b61077a82610731565b810181811067ffffffffffffffff8211171561079957610798610742565b5b80604052505050565b60006107ac610713565b90506107b88282610771565b919050565b600067ffffffffffffffff8211156107d8576107d7610742565b5b6107e182610731565b9050602081019050919050565b82818337600083830152505050565b600061081061080b846107bd565b6107a2565b90508281526020810184848401111561082c5761082b61072c565b5b6108378482856107ee565b509392505050565b600082601f83011261085457610853610727565b5b81356108648482602086016107fd565b91505092915050565b600067ffffffffffffffff82111561088857610887610742565b5b602082029050602081019050919050565b600080fd5b600080fd5b600080fd5b6000606082840312156108be576108bd61089e565b5b6108c860606107a2565b9050600082013567ffffffffffffffff8111156108e8576108e76108a3565b5b6108f48482850161083f565b600083015250602082013567ffffffffffffffff811115610918576109176108a3565b5b6109248482850161083f565b602083015250604082013567ffffffffffffffff811115610948576109476108a3565b5b6109548482850161083f565b60408301525092915050565b600061097361096e8461086d565b6107a2565b9050808382526020820190506020840283018581111561099657610995610899565b5b835b818110156109dd57803567ffffffffffffffff8111156109bb576109ba610727565b5b8086016109c889826108a8565b85526020850194505050602081019050610998565b5050509392505050565b600082601f8301126109fc576109fb610727565b5b8135610a0c848260208601610960565b91505092915050565b60008060408385031215610a2c57610a2b61071d565b5b600083013567ffffffffffffffff811115610a4a57610a49610722565b5b610a568582860161083f565b925050602083013567ffffffffffffffff811115610a7757610a76610722565b5b610a83858286016109e7565b9150509250929050565b600060208284031215610aa357610aa261071d565b5b600082013567ffffffffffffffff811115610ac157610ac0610722565b5b610acd8482850161083f565b91505092915050565b600081519050919050565b600082825260208201905092915050565b60005b83811015610b10578082015181840152602081019050610af5565b60008484015250505050565b6000610b2782610ad6565b610b318185610ae1565b9350610b41818560208601610af2565b610b4a81610731565b840191505092915050565b600081519050919050565b600082825260208201905092915050565b6000819050602082019050919050565b600082825260208201905092915050565b6000610b9d82610ad6565b610ba78185610b81565b9350610bb7818560208601610af2565b610bc081610731565b840191505092915050565b60006060830160008301518482036000860152610be88282610b92565b91505060208301518482036020860152610c028282610b92565b91505060408301518482036040860152610c1c8282610b92565b9150508091505092915050565b6000610c358383610bcb565b905092915050565b6000602082019050919050565b6000610c5582610b55565b610c5f8185610b60565b935083602082028501610c7185610b71565b8060005b85811015610cad5784840389528151610c8e8582610c29565b9450610c9983610c3d565b925060208a01995050600181019050610c75565b50829750879550505050505092915050565b60006040820190508181036000830152610cd98185610b1c565b90508181036020830152610ced8184610c4a565b90509392505050565b7f4e487b7100000000000000000000000000000000000000000000000000000000600052602260045260246000fd5b60006002820490506001821680610d3d57607f821691505b602082108103610d5057610d4f610cf6565b5b50919050565b60008190508160005260206000209050919050565b60006020601f8301049050919050565b600082821b905092915050565b600060088302610db87fffffffffffffffffffffffffffffffffffffffffffffffffffffffffffffffff82610d7b565b610dc28683610d7b565b95508019841693508086168417925050509392505050565b6000819050919050565b6000819050919050565b6000610e09610e04610dff84610dda565b610de4565b610dda565b9050919050565b6000819050919050565b610e2383610dee565b610e37610e2f82610e10565b848454610d88565b825550505050565b600090565b610e4c610e3f565b610e57818484610e1a565b505050565b5b81811015610e7b57610e70600082610e44565b600181019050610e5d565b5050565b601f821115610ec057610e9181610d56565b610e9a84610d6b565b81016020851015610ea9578190505b610ebd610eb585610d6b565b830182610e5c565b50505b505050565b600082821c905092915050565b6000610ee360001984600802610ec5565b1980831691505092915050565b6000610efc8383610ed2565b9150826002028217905092915050565b610f1582610ad6565b67ffffffffffffffff811115610f2e57610f2d610742565b5b610f388254610d25565b610f43828285610e7f565b600060209050601f831160018114610f765760008415610f64578287015190505b610f6e8582610ef0565b865550610fd6565b601f198416610f8486610d56565b60005b82811015610fac57848901518255600182019150602085019450602081019050610f87565b86831015610fc95784890151610fc5601f891682610ed2565b8355505b6001600288020188555050505b505050505050565b600081905092915050565b6000610ff482610ad6565b610ffe8185610fde565b935061100e818560208601610af2565b80840191505092915050565b60006110268284610fe9565b915081905092915050565b7f4e487b7100000000000000000000000000000000000000000000000000000000600052603260045260246000fd5b6000608082019050818103600083015261107a8187610b1c565b9050818103602083015261108e8186610b1c565b905081810360408301526110a28185610b1c565b905081810360608301526110b68184610b1c565b905095945050505050565b7f4e487b7100000000000000000000000000000000000000000000000000000000600052601160045260246000fd5b60006110fb82610dda565b91507fffffffffffffffffffffffffffffffffffffffffffffffffffffffffffffffff820361112d5761112c6110c1565b5b600182019050919050565b7f55736572204944206e6f7420666f756e64000000000000000000000000000000600082015250565b600061116e601183610ae1565b915061117982611138565b602082019050919050565b6000602082019050818103600083015261119d81611161565b905091905056fea264697066735822122088d79275ca4046ccca6ff510efdced6a7c362afec5ed14e1e2fdcf2df703413164736f6c63430008140033",
  "linkReferences": {},
  "deployedLinkReferences": {}
}