{
  "_format": "hh-sol-artifact-1",
  "contractName": "PaymentProcessor",
  "sourceName": "contracts/PaymentProcessor.sol",
  "abi": [
    {
      "inputs": [
        {
          "internalType": "address",
          "name": "accessControlAddress",
          "type": "address"
        },
        {
          "internalType": "address",
          "name": "initialPayeeAddress",
          "type": "address"
        }
      ],
      "stateMutability": "nonpayable",
      "type": "constructor"
    },
    {
      "anonymous": false,
      "inputs": [
        {
          "indexed": false,
          "internalType": "address",
          "name": "oldCollector",
          "type": "address"
        },
        {
          "indexed": false,
          "internalType": "address",
          "name": "newCollector",
          "type": "address"
        }
      ],
      "name": "FeeCollectorUpdated",
      "type": "event"
    },
    {
      "anonymous": false,
      "inputs": [
        {
          "indexed": false,
          "internalType": "uint256",
          "name": "oldPercentage",
          "type": "uint256"
        },
        {
          "indexed": false,
          "internalType": "uint256",
          "name": "newPercentage",
          "type": "uint256"
        }
      ],
      "name": "FeePercentageUpdated",
      "type": "event"
    },
    {
      "anonymous": false,
      "inputs": [
        {
          "indexed": false,
          "internalType": "address",
          "name": "oldPayee",
          "type": "address"
        },
        {
          "indexed": false,
          "internalType": "address",
          "name": "newPayee",
          "type": "address"
        }
      ],
      "name": "PayeeAddressUpdated",
      "type": "event"
    },
    {
      "anonymous": false,
      "inputs": [
        {
          "indexed": true,
          "internalType": "uint256",
          "name": "paymentId",
          "type": "uint256"
        },
        {
          "indexed": false,
          "internalType": "uint256",
          "name": "amount",
          "type": "uint256"
        }
      ],
      "name": "PaymentCompleted",
      "type": "event"
    },
    {
      "anonymous": false,
      "inputs": [
        {
          "indexed": true,
          "internalType": "uint256",
          "name": "paymentId",
          "type": "uint256"
        },
        {
          "indexed": true,
          "internalType": "address",
          "name": "payer",
          "type": "address"
        },
        {
          "indexed": true,
          "internalType": "address",
          "name": "payee",
          "type": "address"
        },
        {
          "indexed": false,
          "internalType": "uint256",
          "name": "amount",
          "type": "uint256"
        }
      ],
      "name": "PaymentCreated",
      "type": "event"
    },
    {
      "anonymous": false,
      "inputs": [
        {
          "indexed": true,
          "internalType": "uint256",
          "name": "paymentId",
          "type": "uint256"
        },
        {
          "indexed": false,
          "internalType": "string",
          "name": "reason",
          "type": "string"
        }
      ],
      "name": "PaymentFailed",
      "type": "event"
    },
    {
      "anonymous": false,
      "inputs": [
        {
          "indexed": true,
          "internalType": "uint256",
          "name": "paymentId",
          "type": "uint256"
        },
        {
          "indexed": false,
          "internalType": "uint256",
          "name": "amount",
          "type": "uint256"
        }
      ],
      "name": "PaymentRefunded",
      "type": "event"
    },
    {
      "inputs": [],
      "name": "feeCollector",
      "outputs": [
        {
          "internalType": "address",
          "name": "",
          "type": "address"
        }
      ],
      "stateMutability": "view",
      "type": "function"
    },
    {
      "inputs": [
        {
          "internalType": "uint256",
          "name": "paymentId",
          "type": "uint256"
        }
      ],
      "name": "getPaymentDetails",
      "outputs": [
        {
          "components": [
            {
              "internalType": "uint256",
              "name": "id",
              "type": "uint256"
            },
            {
              "internalType": "address",
              "name": "payer",
              "type": "address"
            },
            {
              "internalType": "address",
              "name": "payee",
              "type": "address"
            },
            {
              "internalType": "uint256",
              "name": "amount",
              "type": "uint256"
            },
            {
              "internalType": "uint256",
              "name": "timestamp",
              "type": "uint256"
            },
            {
              "internalType": "string",
              "name": "referencer",
              "type": "string"
            },
            {
              "internalType": "enum PaymentProcessor.PaymentStatus",
              "name": "status",
              "type": "uint8"
            },
            {
              "internalType": "string",
              "name": "metadata",
              "type": "string"
            }
          ],
          "internalType": "struct PaymentProcessor.Payment",
          "name": "",
          "type": "tuple"
        }
      ],
      "stateMutability": "view",
      "type": "function"
    },
    {
      "inputs": [
        {
          "internalType": "address",
          "name": "user",
          "type": "address"
        }
      ],
      "name": "getUserPayments",
      "outputs": [
        {
          "internalType": "uint256[]",
          "name": "",
          "type": "uint256[]"
        }
      ],
      "stateMutability": "view",
      "type": "function"
    },
    {
      "inputs": [],
      "name": "payeeAddress",
      "outputs": [
        {
          "internalType": "address",
          "name": "",
          "type": "address"
        }
      ],
      "stateMutability": "view",
      "type": "function"
    },
    {
      "inputs": [],
      "name": "paymentCount",
      "outputs": [
        {
          "internalType": "uint256",
          "name": "",
          "type": "uint256"
        }
      ],
      "stateMutability": "view",
      "type": "function"
    },
    {
      "inputs": [
        {
          "internalType": "uint256",
          "name": "",
          "type": "uint256"
        }
      ],
      "name": "payments",
      "outputs": [
        {
          "internalType": "uint256",
          "name": "id",
          "type": "uint256"
        },
        {
          "internalType": "address",
          "name": "payer",
          "type": "address"
        },
        {
          "internalType": "address",
          "name": "payee",
          "type": "address"
        },
        {
          "internalType": "uint256",
          "name": "amount",
          "type": "uint256"
        },
        {
          "internalType": "uint256",
          "name": "timestamp",
          "type": "uint256"
        },
        {
          "internalType": "string",
          "name": "referencer",
          "type": "string"
        },
        {
          "internalType": "enum PaymentProcessor.PaymentStatus",
          "name": "status",
          "type": "uint8"
        },
        {
          "internalType": "string",
          "name": "metadata",
          "type": "string"
        }
      ],
      "stateMutability": "view",
      "type": "function"
    },
    {
      "inputs": [],
      "name": "platformFeePercentage",
      "outputs": [
        {
          "internalType": "uint256",
          "name": "",
          "type": "uint256"
        }
      ],
      "stateMutability": "view",
      "type": "function"
    },
    {
      "inputs": [
        {
          "internalType": "string",
          "name": "referencer",
          "type": "string"
        },
        {
          "internalType": "string",
          "name": "metadata",
          "type": "string"
        }
      ],
      "name": "processPayment",
      "outputs": [],
      "stateMutability": "payable",
      "type": "function"
    },
    {
      "inputs": [
        {
          "internalType": "uint256",
          "name": "paymentId",
          "type": "uint256"
        }
      ],
      "name": "refundPayment",
      "outputs": [],
      "stateMutability": "payable",
      "type": "function"
    },
    {
      "inputs": [
        {
          "internalType": "address",
          "name": "newFeeCollector",
          "type": "address"
        }
      ],
      "name": "updateFeeCollector",
      "outputs": [],
      "stateMutability": "nonpayable",
      "type": "function"
    },
    {
      "inputs": [
        {
          "internalType": "uint256",
          "name": "newFeePercentage",
          "type": "uint256"
        }
      ],
      "name": "updateFeePercentage",
      "outputs": [],
      "stateMutability": "nonpayable",
      "type": "function"
    },
    {
      "inputs": [
        {
          "internalType": "address",
          "name": "newPayeeAddress",
          "type": "address"
        }
      ],
      "name": "updatePayeeAddress",
      "outputs": [],
      "stateMutability": "nonpayable",
      "type": "function"
    },
    {
      "inputs": [
        {
          "internalType": "address",
          "name": "",
          "type": "address"
        },
        {
          "internalType": "uint256",
          "name": "",
          "type": "uint256"
        }
      ],
      "name": "userPayments",
      "outputs": [
        {
          "internalType": "uint256",
          "name": "",
          "type": "uint256"
        }
      ],
      "stateMutability": "view",
      "type": "function"
    }
  ],
  "bytecode": "0x60806040523480156200001157600080fd5b5060405162002fb838038062002fb883398181016040528101906200003791906200025f565b600073ffffffffffffffffffffffffffffffffffffffff168273ffffffffffffffffffffffffffffffffffffffff1603620000a9576040517f08c379a0000000000000000000000000000000000000000000000000000000008152600401620000a09062000307565b60405180910390fd5b600073ffffffffffffffffffffffffffffffffffffffff168173ffffffffffffffffffffffffffffffffffffffff16036200011b576040517f08c379a0000000000000000000000000000000000000000000000000000000008152600401620001129062000379565b60405180910390fd5b816000806101000a81548173ffffffffffffffffffffffffffffffffffffffff021916908373ffffffffffffffffffffffffffffffffffffffff160217905550600060038190555060fa60048190555033600560006101000a81548173ffffffffffffffffffffffffffffffffffffffff021916908373ffffffffffffffffffffffffffffffffffffffff16021790555080600660006101000a81548173ffffffffffffffffffffffffffffffffffffffff021916908373ffffffffffffffffffffffffffffffffffffffff16021790555050506200039b565b600080fd5b600073ffffffffffffffffffffffffffffffffffffffff82169050919050565b60006200022782620001fa565b9050919050565b62000239816200021a565b81146200024557600080fd5b50565b60008151905062000259816200022e565b92915050565b60008060408385031215620002795762000278620001f5565b5b6000620002898582860162000248565b92505060206200029c8582860162000248565b9150509250929050565b600082825260208201905092915050565b7f496e76616c696420416363657373436f6e74726f6c2061646472657373000000600082015250565b6000620002ef601d83620002a6565b9150620002fc82620002b7565b602082019050919050565b600060208201905081810360008301526200032281620002e0565b9050919050565b7f496e76616c696420706179656520616464726573730000000000000000000000600082015250565b600062000361601583620002a6565b91506200036e8262000329565b602082019050919050565b60006020820190508181036000830152620003948162000352565b9050919050565b612c0d80620003ab6000396000f3fe6080604052600436106100c25760003560e01c80638cfeab351161007f578063c415b95c11610059578063c415b95c14610286578063cdd78cfc146102b1578063d2c35ce8146102dc578063f63813f414610305576100c2565b80638cfeab35146101cf5780639d7dadeb1461020c5780639e70df2114610249576100c2565b80630937e68a146100c757806333cede13146100f25780636cad3fb01461011d57806378f8f0211461014657806387d817891461016f5780638c11800e146101b3575b600080fd5b3480156100d357600080fd5b506100dc610321565b6040516100e991906119db565b60405180910390f35b3480156100fe57600080fd5b50610107610327565b6040516101149190611a37565b60405180910390f35b34801561012957600080fd5b50610144600480360381019061013f9190611a88565b61034d565b005b34801561015257600080fd5b5061016d60048036038101906101689190611ae1565b6104d3565b005b34801561017b57600080fd5b5061019660048036038101906101919190611a88565b6106dd565b6040516101aa989796959493929190611c15565b60405180910390f35b6101cd60048036038101906101c89190611d06565b610882565b005b3480156101db57600080fd5b506101f660048036038101906101f19190611d87565b610f93565b60405161020391906119db565b60405180910390f35b34801561021857600080fd5b50610233600480360381019061022e9190611ae1565b610fc4565b6040516102409190611e85565b60405180910390f35b34801561025557600080fd5b50610270600480360381019061026b9190611a88565b61105b565b60405161027d9190611fc6565b60405180910390f35b34801561029257600080fd5b5061029b6112f6565b6040516102a89190611a37565b60405180910390f35b3480156102bd57600080fd5b506102c661131c565b6040516102d391906119db565b60405180910390f35b3480156102e857600080fd5b5061030360048036038101906102fe9190611ae1565b611322565b005b61031f600480360381019061031a9190611a88565b61152c565b005b60035481565b600660009054906101000a900473ffffffffffffffffffffffffffffffffffffffff1681565b60008054906101000a900473ffffffffffffffffffffffffffffffffffffffff1673ffffffffffffffffffffffffffffffffffffffff16638da5cb5b6040518163ffffffff1660e01b8152600401602060405180830381865afa1580156103b8573d6000803e3d6000fd5b505050506040513d601f19601f820116820180604052508101906103dc9190611ffd565b73ffffffffffffffffffffffffffffffffffffffff163373ffffffffffffffffffffffffffffffffffffffff1614610449576040517f08c379a000000000000000000000000000000000000000000000000000000000815260040161044090612076565b60405180910390fd5b6103e881111561048e576040517f08c379a0000000000000000000000000000000000000000000000000000000008152600401610485906120e2565b60405180910390fd5b7fb27c12a91635e11c22bffa7bd8e0a8735da52b94aaefd7f249776c7590ba7894600454826040516104c1929190612102565b60405180910390a18060048190555050565b60008054906101000a900473ffffffffffffffffffffffffffffffffffffffff1673ffffffffffffffffffffffffffffffffffffffff16638da5cb5b6040518163ffffffff1660e01b8152600401602060405180830381865afa15801561053e573d6000803e3d6000fd5b505050506040513d601f19601f820116820180604052508101906105629190611ffd565b73ffffffffffffffffffffffffffffffffffffffff163373ffffffffffffffffffffffffffffffffffffffff16146105cf576040517f08c379a00000000000000000000000000000000000000000000000000000000081526004016105c690612076565b60405180910390fd5b600073ffffffffffffffffffffffffffffffffffffffff168173ffffffffffffffffffffffffffffffffffffffff160361063e576040517f08c379a000000000000000000000000000000000000000000000000000000000815260040161063590612177565b60405180910390fd5b7f59476e526d6ddb0905db12d497acda9ebec95bd58420b00b62bf5f72b77db79d600660009054906101000a900473ffffffffffffffffffffffffffffffffffffffff1682604051610691929190612197565b60405180910390a180600660006101000a81548173ffffffffffffffffffffffffffffffffffffffff021916908373ffffffffffffffffffffffffffffffffffffffff16021790555050565b60016020528060005260406000206000915090508060000154908060010160009054906101000a900473ffffffffffffffffffffffffffffffffffffffff16908060020160009054906101000a900473ffffffffffffffffffffffffffffffffffffffff169080600301549080600401549080600501805461075e906121ef565b80601f016020809104026020016040519081016040528092919081815260200182805461078a906121ef565b80156107d75780601f106107ac576101008083540402835291602001916107d7565b820191906000526020600020905b8154815290600101906020018083116107ba57829003601f168201915b5050505050908060060160009054906101000a900460ff16908060070180546107ff906121ef565b80601f016020809104026020016040519081016040528092919081815260200182805461082b906121ef565b80156108785780601f1061084d57610100808354040283529160200191610878565b820191906000526020600020905b81548152906001019060200180831161085b57829003601f168201915b5050505050905088565b600034116108c5576040517f08c379a00000000000000000000000000000000000000000000000000000000081526004016108bc90612292565b60405180910390fd5b6000600360008154809291906108da906122e1565b9190505590506000612710600454346108f39190612329565b6108fd919061239a565b90506000813461090d91906123cb565b90506040518061010001604052808481526020013373ffffffffffffffffffffffffffffffffffffffff168152602001600660009054906101000a900473ffffffffffffffffffffffffffffffffffffffff1673ffffffffffffffffffffffffffffffffffffffff16815260200134815260200142815260200188888080601f016020809104026020016040519081016040528093929190818152602001838380828437600081840152601f19601f820116905080830192505050505050508152602001600160038111156109e5576109e4611b9e565b5b815260200186868080601f016020809104026020016040519081016040528093929190818152602001838380828437600081840152601f19601f82011690508083019250505050505050815250600160008581526020019081526020016000206000820151816000015560208201518160010160006101000a81548173ffffffffffffffffffffffffffffffffffffffff021916908373ffffffffffffffffffffffffffffffffffffffff16021790555060408201518160020160006101000a81548173ffffffffffffffffffffffffffffffffffffffff021916908373ffffffffffffffffffffffffffffffffffffffff160217905550606082015181600301556080820151816004015560a0820151816005019081610b0691906125da565b5060c08201518160060160006101000a81548160ff02191690836003811115610b3257610b31611b9e565b5b021790555060e0820151816007019081610b4c91906125da565b50905050600260003373ffffffffffffffffffffffffffffffffffffffff1673ffffffffffffffffffffffffffffffffffffffff16815260200190815260200160002083908060018154018082558091505060019003906000526020600020016000909190919091505560026000600660009054906101000a900473ffffffffffffffffffffffffffffffffffffffff1673ffffffffffffffffffffffffffffffffffffffff1673ffffffffffffffffffffffffffffffffffffffff1681526020019081526020016000208390806001815401808255809150506001900390600052602060002001600090919091909150556000600560009054906101000a900473ffffffffffffffffffffffffffffffffffffffff1673ffffffffffffffffffffffffffffffffffffffff1683604051610c86906126dd565b60006040518083038185875af1925050503d8060008114610cc3576040519150601f19603f3d011682016040523d82523d6000602084013e610cc8565b606091505b5050905080610d0c576040517f08c379a0000000000000000000000000000000000000000000000000000000008152600401610d039061273e565b60405180910390fd5b6000600660009054906101000a900473ffffffffffffffffffffffffffffffffffffffff1673ffffffffffffffffffffffffffffffffffffffff1683604051610d54906126dd565b60006040518083038185875af1925050503d8060008114610d91576040519150601f19603f3d011682016040523d82523d6000602084013e610d96565b606091505b505090508015610ddd57847f804fbdce9b2b430341d671cd679f22ccb903e9db545bedbbc7da4e6230e2bdb934604051610dd091906119db565b60405180910390a2610f00565b60026001600087815260200190815260200160002060060160006101000a81548160ff02191690836003811115610e1757610e16611b9e565b5b0217905550847f6b1332fdcceb2466007cd58e6d40cd189c03eaad7aa25c20c2015d25f1a4ad43604051610e4a906127aa565b60405180910390a260003373ffffffffffffffffffffffffffffffffffffffff1684604051610e78906126dd565b60006040518083038185875af1925050503d8060008114610eb5576040519150601f19603f3d011682016040523d82523d6000602084013e610eba565b606091505b5050905080610efe576040517f08c379a0000000000000000000000000000000000000000000000000000000008152600401610ef590612816565b60405180910390fd5b505b600660009054906101000a900473ffffffffffffffffffffffffffffffffffffffff1673ffffffffffffffffffffffffffffffffffffffff163373ffffffffffffffffffffffffffffffffffffffff16867fbca8aeacf1f38658b18930496eecdc82575bb54ced59ae5ddea3c2a221bc19aa34604051610f8091906119db565b60405180910390a4505050505050505050565b60026020528160005260406000208181548110610faf57600080fd5b90600052602060002001600091509150505481565b6060600260008373ffffffffffffffffffffffffffffffffffffffff1673ffffffffffffffffffffffffffffffffffffffff16815260200190815260200160002080548060200260200160405190810160405280929190818152602001828054801561104f57602002820191906000526020600020905b81548152602001906001019080831161103b575b50505050509050919050565b61106361193f565b60035482106110a7576040517f08c379a000000000000000000000000000000000000000000000000000000000815260040161109e90612882565b60405180910390fd5b6001600083815260200190815260200160002060405180610100016040529081600082015481526020016001820160009054906101000a900473ffffffffffffffffffffffffffffffffffffffff1673ffffffffffffffffffffffffffffffffffffffff1673ffffffffffffffffffffffffffffffffffffffff1681526020016002820160009054906101000a900473ffffffffffffffffffffffffffffffffffffffff1673ffffffffffffffffffffffffffffffffffffffff1673ffffffffffffffffffffffffffffffffffffffff16815260200160038201548152602001600482015481526020016005820180546111a0906121ef565b80601f01602080910402602001604051908101604052809291908181526020018280546111cc906121ef565b80156112195780601f106111ee57610100808354040283529160200191611219565b820191906000526020600020905b8154815290600101906020018083116111fc57829003601f168201915b505050505081526020016006820160009054906101000a900460ff16600381111561124757611246611b9e565b5b600381111561125957611258611b9e565b5b815260200160078201805461126d906121ef565b80601f0160208091040260200160405190810160405280929190818152602001828054611299906121ef565b80156112e65780601f106112bb576101008083540402835291602001916112e6565b820191906000526020600020905b8154815290600101906020018083116112c957829003601f168201915b5050505050815250509050919050565b600560009054906101000a900473ffffffffffffffffffffffffffffffffffffffff1681565b60045481565b60008054906101000a900473ffffffffffffffffffffffffffffffffffffffff1673ffffffffffffffffffffffffffffffffffffffff16638da5cb5b6040518163ffffffff1660e01b8152600401602060405180830381865afa15801561138d573d6000803e3d6000fd5b505050506040513d601f19601f820116820180604052508101906113b19190611ffd565b73ffffffffffffffffffffffffffffffffffffffff163373ffffffffffffffffffffffffffffffffffffffff161461141e576040517f08c379a000000000000000000000000000000000000000000000000000000000815260040161141590612076565b60405180910390fd5b600073ffffffffffffffffffffffffffffffffffffffff168173ffffffffffffffffffffffffffffffffffffffff160361148d576040517f08c379a0000000000000000000000000000000000000000000000000000000008152600401611484906128ee565b60405180910390fd5b7f5d16ad41baeb009cd23eb8f6c7cde5c2e0cd5acf4a33926ab488875c37c37f38600560009054906101000a900473ffffffffffffffffffffffffffffffffffffffff16826040516114e0929190612197565b60405180910390a180600560006101000a81548173ffffffffffffffffffffffffffffffffffffffff021916908373ffffffffffffffffffffffffffffffffffffffff16021790555050565b60008054906101000a900473ffffffffffffffffffffffffffffffffffffffff1673ffffffffffffffffffffffffffffffffffffffff166391d148547fd7d8b7014b7ed36eb085c9e3e427b642d74cab75ecefda8a757042e63ec59919336040518363ffffffff1660e01b81526004016115a7929190612927565b602060405180830381865afa1580156115c4573d6000803e3d6000fd5b505050506040513d601f19601f820116820180604052508101906115e89190612988565b806116ac575060008054906101000a900473ffffffffffffffffffffffffffffffffffffffff1673ffffffffffffffffffffffffffffffffffffffff16638da5cb5b6040518163ffffffff1660e01b8152600401602060405180830381865afa158015611659573d6000803e3d6000fd5b505050506040513d601f19601f8201168201806040525081019061167d9190611ffd565b73ffffffffffffffffffffffffffffffffffffffff163373ffffffffffffffffffffffffffffffffffffffff16145b6116eb576040517f08c379a00000000000000000000000000000000000000000000000000000000081526004016116e290612a27565b60405180910390fd5b600354811061172f576040517f08c379a000000000000000000000000000000000000000000000000000000000815260040161172690612882565b60405180910390fd5b60006001600083815260200190815260200160002090506001600381111561175a57611759611b9e565b5b8160060160009054906101000a900460ff16600381111561177e5761177d611b9e565b5b146117be576040517f08c379a00000000000000000000000000000000000000000000000000000000081526004016117b590612ab9565b60405180910390fd5b8060030154341015611805576040517f08c379a00000000000000000000000000000000000000000000000000000000081526004016117fc90612b4b565b60405180910390fd5b60038160060160006101000a81548160ff0219169083600381111561182d5761182c611b9e565b5b021790555060008160010160009054906101000a900473ffffffffffffffffffffffffffffffffffffffff1673ffffffffffffffffffffffffffffffffffffffff163460405161187c906126dd565b60006040518083038185875af1925050503d80600081146118b9576040519150601f19603f3d011682016040523d82523d6000602084013e6118be565b606091505b5050905080611902576040517f08c379a00000000000000000000000000000000000000000000000000000000081526004016118f990612bb7565b60405180910390fd5b827f67f747c6f27de92631981bb66171467a5801e4659b923cb57ca0ed27d009985e3460405161193291906119db565b60405180910390a2505050565b60405180610100016040528060008152602001600073ffffffffffffffffffffffffffffffffffffffff168152602001600073ffffffffffffffffffffffffffffffffffffffff168152602001600081526020016000815260200160608152602001600060038111156119b5576119b4611b9e565b5b8152602001606081525090565b6000819050919050565b6119d5816119c2565b82525050565b60006020820190506119f060008301846119cc565b92915050565b600073ffffffffffffffffffffffffffffffffffffffff82169050919050565b6000611a21826119f6565b9050919050565b611a3181611a16565b82525050565b6000602082019050611a4c6000830184611a28565b92915050565b600080fd5b600080fd5b611a65816119c2565b8114611a7057600080fd5b50565b600081359050611a8281611a5c565b92915050565b600060208284031215611a9e57611a9d611a52565b5b6000611aac84828501611a73565b91505092915050565b611abe81611a16565b8114611ac957600080fd5b50565b600081359050611adb81611ab5565b92915050565b600060208284031215611af757611af6611a52565b5b6000611b0584828501611acc565b91505092915050565b600081519050919050565b600082825260208201905092915050565b60005b83811015611b48578082015181840152602081019050611b2d565b60008484015250505050565b6000601f19601f8301169050919050565b6000611b7082611b0e565b611b7a8185611b19565b9350611b8a818560208601611b2a565b611b9381611b54565b840191505092915050565b7f4e487b7100000000000000000000000000000000000000000000000000000000600052602160045260246000fd5b60048110611bde57611bdd611b9e565b5b50565b6000819050611bef82611bcd565b919050565b6000611bff82611be1565b9050919050565b611c0f81611bf4565b82525050565b600061010082019050611c2b600083018b6119cc565b611c38602083018a611a28565b611c456040830189611a28565b611c5260608301886119cc565b611c5f60808301876119cc565b81810360a0830152611c718186611b65565b9050611c8060c0830185611c06565b81810360e0830152611c928184611b65565b90509998505050505050505050565b600080fd5b600080fd5b600080fd5b60008083601f840112611cc657611cc5611ca1565b5b8235905067ffffffffffffffff811115611ce357611ce2611ca6565b5b602083019150836001820283011115611cff57611cfe611cab565b5b9250929050565b60008060008060408587031215611d2057611d1f611a52565b5b600085013567ffffffffffffffff811115611d3e57611d3d611a57565b5b611d4a87828801611cb0565b9450945050602085013567ffffffffffffffff811115611d6d57611d6c611a57565b5b611d7987828801611cb0565b925092505092959194509250565b60008060408385031215611d9e57611d9d611a52565b5b6000611dac85828601611acc565b9250506020611dbd85828601611a73565b9150509250929050565b600081519050919050565b600082825260208201905092915050565b6000819050602082019050919050565b611dfc816119c2565b82525050565b6000611e0e8383611df3565b60208301905092915050565b6000602082019050919050565b6000611e3282611dc7565b611e3c8185611dd2565b9350611e4783611de3565b8060005b83811015611e78578151611e5f8882611e02565b9750611e6a83611e1a565b925050600181019050611e4b565b5085935050505092915050565b60006020820190508181036000830152611e9f8184611e27565b905092915050565b611eb081611a16565b82525050565b600082825260208201905092915050565b6000611ed282611b0e565b611edc8185611eb6565b9350611eec818560208601611b2a565b611ef581611b54565b840191505092915050565b611f0981611bf4565b82525050565b600061010083016000830151611f286000860182611df3565b506020830151611f3b6020860182611ea7565b506040830151611f4e6040860182611ea7565b506060830151611f616060860182611df3565b506080830151611f746080860182611df3565b5060a083015184820360a0860152611f8c8282611ec7565b91505060c0830151611fa160c0860182611f00565b5060e083015184820360e0860152611fb98282611ec7565b9150508091505092915050565b60006020820190508181036000830152611fe08184611f0f565b905092915050565b600081519050611ff781611ab5565b92915050565b60006020828403121561201357612012611a52565b5b600061202184828501611fe8565b91505092915050565b7f43616c6c6572206973206e6f7420746865206f776e6572000000000000000000600082015250565b6000612060601783611b19565b915061206b8261202a565b602082019050919050565b6000602082019050818103600083015261208f81612053565b9050919050565b7f4665652070657263656e746167652063616e6e6f742065786365656420313025600082015250565b60006120cc602083611b19565b91506120d782612096565b602082019050919050565b600060208201905081810360008301526120fb816120bf565b9050919050565b600060408201905061211760008301856119cc565b61212460208301846119cc565b9392505050565b7f496e76616c696420706179656520616464726573730000000000000000000000600082015250565b6000612161601583611b19565b915061216c8261212b565b602082019050919050565b6000602082019050818103600083015261219081612154565b9050919050565b60006040820190506121ac6000830185611a28565b6121b96020830184611a28565b9392505050565b7f4e487b7100000000000000000000000000000000000000000000000000000000600052602260045260246000fd5b6000600282049050600182168061220757607f821691505b60208210810361221a576122196121c0565b5b50919050565b7f5061796d656e7420616d6f756e74206d7573742062652067726561746572207460008201527f68616e2030000000000000000000000000000000000000000000000000000000602082015250565b600061227c602583611b19565b915061228782612220565b604082019050919050565b600060208201905081810360008301526122ab8161226f565b9050919050565b7f4e487b7100000000000000000000000000000000000000000000000000000000600052601160045260246000fd5b60006122ec826119c2565b91507fffffffffffffffffffffffffffffffffffffffffffffffffffffffffffffffff820361231e5761231d6122b2565b5b600182019050919050565b6000612334826119c2565b915061233f836119c2565b925082820261234d816119c2565b91508282048414831517612364576123636122b2565b5b5092915050565b7f4e487b7100000000000000000000000000000000000000000000000000000000600052601260045260246000fd5b60006123a5826119c2565b91506123b0836119c2565b9250826123c0576123bf61236b565b5b828204905092915050565b60006123d6826119c2565b91506123e1836119c2565b92508282039050818111156123f9576123f86122b2565b5b92915050565b7f4e487b7100000000000000000000000000000000000000000000000000000000600052604160045260246000fd5b60008190508160005260206000209050919050565b60006020601f8301049050919050565b600082821b905092915050565b6000600883026124907fffffffffffffffffffffffffffffffffffffffffffffffffffffffffffffffff82612453565b61249a8683612453565b95508019841693508086168417925050509392505050565b6000819050919050565b60006124d76124d26124cd846119c2565b6124b2565b6119c2565b9050919050565b6000819050919050565b6124f1836124bc565b6125056124fd826124de565b848454612460565b825550505050565b600090565b61251a61250d565b6125258184846124e8565b505050565b5b818110156125495761253e600082612512565b60018101905061252b565b5050565b601f82111561258e5761255f8161242e565b61256884612443565b81016020851015612577578190505b61258b61258385612443565b83018261252a565b50505b505050565b600082821c905092915050565b60006125b160001984600802612593565b1980831691505092915050565b60006125ca83836125a0565b9150826002028217905092915050565b6125e382611b0e565b67ffffffffffffffff8111156125fc576125fb6123ff565b5b61260682546121ef565b61261182828561254d565b600060209050601f8311600181146126445760008415612632578287015190505b61263c85826125be565b8655506126a4565b601f1984166126528661242e565b60005b8281101561267a57848901518255600182019150602085019450602081019050612655565b868310156126975784890151612693601f8916826125a0565b8355505b6001600288020188555050505b505050505050565b600081905092915050565b50565b60006126c76000836126ac565b91506126d2826126b7565b600082019050919050565b60006126e8826126ba565b9150819050919050565b7f466565207472616e73666572206661696c656400000000000000000000000000600082015250565b6000612728601383611b19565b9150612733826126f2565b602082019050919050565b600060208201905081810360008301526127578161271b565b9050919050565b7f5472616e7366657220746f207061796565206661696c65640000000000000000600082015250565b6000612794601883611b19565b915061279f8261275e565b602082019050919050565b600060208201905081810360008301526127c381612787565b9050919050565b7f526566756e64206661696c656400000000000000000000000000000000000000600082015250565b6000612800600d83611b19565b915061280b826127ca565b602082019050919050565b6000602082019050818103600083015261282f816127f3565b9050919050565b7f5061796d656e7420646f6573206e6f7420657869737400000000000000000000600082015250565b600061286c601683611b19565b915061287782612836565b602082019050919050565b6000602082019050818103600083015261289b8161285f565b9050919050565b7f496e76616c69642066656520636f6c6c6563746f722061646472657373000000600082015250565b60006128d8601d83611b19565b91506128e3826128a2565b602082019050919050565b60006020820190508181036000830152612907816128cb565b9050919050565b6000819050919050565b6129218161290e565b82525050565b600060408201905061293c6000830185612918565b6129496020830184611a28565b9392505050565b60008115159050919050565b61296581612950565b811461297057600080fd5b50565b6000815190506129828161295c565b92915050565b60006020828403121561299e5761299d611a52565b5b60006129ac84828501612973565b91505092915050565b7f43616c6c6572206973206e6f7420617574686f72697a656420666f722070617960008201527f6d656e742070726f63657373696e670000000000000000000000000000000000602082015250565b6000612a11602f83611b19565b9150612a1c826129b5565b604082019050919050565b60006020820190508181036000830152612a4081612a04565b9050919050565b7f5061796d656e74206973206e6f7420696e20636f6d706c65746564207374617460008201527f6500000000000000000000000000000000000000000000000000000000000000602082015250565b6000612aa3602183611b19565b9150612aae82612a47565b604082019050919050565b60006020820190508181036000830152612ad281612a96565b9050919050565b7f526566756e6420616d6f756e74206d757374206265206174206c65617374207460008201527f6865207061796d656e7420616d6f756e74000000000000000000000000000000602082015250565b6000612b35603183611b19565b9150612b4082612ad9565b604082019050919050565b60006020820190508181036000830152612b6481612b28565b9050919050565b7f526566756e64207472616e73666572206661696c656400000000000000000000600082015250565b6000612ba1601683611b19565b9150612bac82612b6b565b602082019050919050565b60006020820190508181036000830152612bd081612b94565b905091905056fea264697066735822122069bb68ac435448ff21b12f3d3890322fc28533d7622aa3dbeae49a1b1eeff50464736f6c63430008140033",
  "linkReferences": {},
  "deployedLinkReferences": {}
}