{
  "_format": "hh-sol-artifact-1",
  "contractName": "PaymentProcessorTest",
  "sourceName": "contracts/test_PaymentProcessor.sol",
  "abi": [
    {
      "anonymous": false,
      "inputs": [
        {
          "indexed": false,
          "internalType": "bool",
          "name": "success",
          "type": "bool"
        },
        {
          "indexed": false,
          "internalType": "string",
          "name": "message",
          "type": "string"
        }
      ],
      "name": "TestResult",
      "type": "event"
    },
    {
      "inputs": [],
      "name": "runAllTests",
      "outputs": [],
      "stateMutability": "payable",
      "type": "function"
    },
    {
      "inputs": [],
      "name": "setUp",
      "outputs": [],
      "stateMutability": "nonpayable",
      "type": "function"
    },
    {
      "inputs": [],
      "name": "testEmergencyWithdraw",
      "outputs": [],
      "stateMutability": "payable",
      "type": "function"
    },
    {
      "inputs": [],
      "name": "testFailureCases",
      "outputs": [],
      "stateMutability": "nonpayable",
      "type": "function"
    },
    {
      "inputs": [],
      "name": "testInitialization",
      "outputs": [],
      "stateMutability": "nonpayable",
      "type": "function"
    },
    {
      "inputs": [],
      "name": "testProcessPayment",
      "outputs": [],
      "stateMutability": "payable",
      "type": "function"
    },
    {
      "inputs": [],
      "name": "testSetFeeCollector",
      "outputs": [],
      "stateMutability": "nonpayable",
      "type": "function"
    },
    {
      "inputs": [],
      "name": "testSetFeePercentage",
      "outputs": [],
      "stateMutability": "nonpayable",
      "type": "function"
    },
    {
      "inputs": [],
      "name": "testTransferOwnership",
      "outputs": [],
      "stateMutability": "nonpayable",
      "type": "function"
    },
    {
      "inputs": [],
      "name": "testUpdatePaymentStatus",
      "outputs": [],
      "stateMutability": "payable",
      "type": "function"
    },
    {
      "stateMutability": "payable",
      "type": "receive"
    }
  ],
  "bytecode": "0x608060405234801561001057600080fd5b506156ae806100206000396000f3fe608060405260043610620000a35760003560e01c8063a0ac36bd1162000061578063a0ac36bd1462000116578063a109f39a1462000130578063a2cbfed4146200014a578063d37626d11462000164578063e65e87fb146200017057620000ab565b80630a9254e414620000b057806310a5f51d14620000ca5780631290ceee14620000d65780633f34ed4514620000e25780638522ac8c14620000fc57620000ab565b36620000ab57005b600080fd5b348015620000bd57600080fd5b50620000c86200017c565b005b620000d4620002b2565b005b620000e0620006e6565b005b348015620000ef57600080fd5b50620000fa620008df565b005b3480156200010957600080fd5b506200011462000a95565b005b3480156200012357600080fd5b506200012e62000c8a565b005b3480156200013d57600080fd5b50620001486200102f565b005b3480156200015757600080fd5b506200016262001461565b005b6200016e62001656565b005b6200017a62001989565b005b30600160006101000a81548173ffffffffffffffffffffffffffffffffffffffff021916908373ffffffffffffffffffffffffffffffffffffffff160217905550731234567890123456789012345678901234567890600260006101000a81548173ffffffffffffffffffffffffffffffffffffffff021916908373ffffffffffffffffffffffffffffffffffffffff160217905550600260009054906101000a900473ffffffffffffffffffffffffffffffffffffffff166101f4604051620002469062001a63565b6200025392919062001ad1565b604051809103906000f08015801562000270573d6000803e3d6000fd5b506000806101000a81548173ffffffffffffffffffffffffffffffffffffffff021916908373ffffffffffffffffffffffffffffffffffffffff160217905550565b670de0b6b3a764000034101562000300576040517f08c379a0000000000000000000000000000000000000000000000000000000008152600401620002f79062001b85565b60405180910390fd5b6200030a6200017c565b6000600260009054906101000a900473ffffffffffffffffffffffffffffffffffffffff1673ffffffffffffffffffffffffffffffffffffffff16319050600047905060006040518060600160405280602c81526020016200564d602c9139905060008060009054906101000a900473ffffffffffffffffffffffffffffffffffffffff1673ffffffffffffffffffffffffffffffffffffffff1663b7655d70670de0b6b3a7640000846040518363ffffffff1660e01b8152600401620003d2919062001c30565b60206040518083038185885af1158015620003f1573d6000803e3d6000fd5b50505050506040513d601f19601f8201168201806040525081019062000418919062001c99565b905060008060009054906101000a900473ffffffffffffffffffffffffffffffffffffffff1673ffffffffffffffffffffffffffffffffffffffff16633280a836836040518263ffffffff1660e01b815260040162000478919062001ccb565b600060405180830381865afa15801562000496573d6000803e3d6000fd5b505050506040513d6000823e3d601f19601f82011682018060405250810190620004c1919062001f5d565b905060006001905060018260000151146200051557600090507f08ac145f3e770071f0c37bc3ff2567bb378849e8681fd23c65de36a8e6a4955f60006040516200050c91906200201b565b60405180910390a15b3073ffffffffffffffffffffffffffffffffffffffff16826020015173ffffffffffffffffffffffffffffffffffffffff16146200058c57600090507f08ac145f3e770071f0c37bc3ff2567bb378849e8681fd23c65de36a8e6a4955f60006040516200058391906200209d565b60405180910390a15b670de0b6b3a7640000826040015114620005df57600090507f08ac145f3e770071f0c37bc3ff2567bb378849e8681fd23c65de36a8e6a4955f6000604051620005d691906200211f565b60405180910390a15b60016003811115620005f657620005f562002151565b5b8260800151600381111562000610576200060f62002151565b5b146200065557600090507f08ac145f3e770071f0c37bc3ff2567bb378849e8681fd23c65de36a8e6a4955f60006040516200064c9190620021f6565b60405180910390a15b60006127106101f4670de0b6b3a764000062000672919062002257565b6200067e9190620022d1565b9050600081670de0b6b3a764000062000698919062002309565b90508215620006dc577f08ac145f3e770071f0c37bc3ff2567bb378849e8681fd23c65de36a8e6a4955f6001604051620006d3919062002394565b60405180910390a15b5050505050505050565b670de0b6b3a764000034101562000734576040517f08c379a00000000000000000000000000000000000000000000000000000000081526004016200072b9062001b85565b60405180910390fd5b6200073e6200017c565b60008060009054906101000a900473ffffffffffffffffffffffffffffffffffffffff1673ffffffffffffffffffffffffffffffffffffffff166706f05b59d3b200006040516200078f90620023fb565b60006040518083038185875af1925050503d8060008114620007ce576040519150601f19603f3d011682016040523d82523d6000602084013e620007d3565b606091505b50509050806200081a576040517f08c379a0000000000000000000000000000000000000000000000000000000008152600401620008119062002488565b60405180910390fd5b600047905060008054906101000a900473ffffffffffffffffffffffffffffffffffffffff1673ffffffffffffffffffffffffffffffffffffffff1663db2e21bc6040518163ffffffff1660e01b8152600401600060405180830381600087803b1580156200088857600080fd5b505af11580156200089d573d6000803e3d6000fd5b505050507f08ac145f3e770071f0c37bc3ff2567bb378849e8681fd23c65de36a8e6a4955f6001604051620008d39190620024fa565b60405180910390a15050565b620008e96200017c565b600060c8905060008054906101000a900473ffffffffffffffffffffffffffffffffffffffff1673ffffffffffffffffffffffffffffffffffffffff1663ae06c1b7826040518263ffffffff1660e01b81526004016200094a919062001ccb565b600060405180830381600087803b1580156200096557600080fd5b505af11580156200097a573d6000803e3d6000fd5b505050508060008054906101000a900473ffffffffffffffffffffffffffffffffffffffff1673ffffffffffffffffffffffffffffffffffffffff1663a001ecdd6040518163ffffffff1660e01b8152600401602060405180830381865afa158015620009eb573d6000803e3d6000fd5b505050506040513d601f19601f8201168201806040525081019062000a11919062001c99565b0362000a57577f08ac145f3e770071f0c37bc3ff2567bb378849e8681fd23c65de36a8e6a4955f600160405162000a499190620025a2565b60405180910390a162000a92565b7f08ac145f3e770071f0c37bc3ff2567bb378849e8681fd23c65de36a8e6a4955f600060405162000a8991906200264a565b60405180910390a15b50565b62000a9f6200017c565b600073abcdef0123456789abcdef0123456789abcdef01905060008054906101000a900473ffffffffffffffffffffffffffffffffffffffff1673ffffffffffffffffffffffffffffffffffffffff1663f2fde38b826040518263ffffffff1660e01b815260040162000b1391906200267c565b600060405180830381600087803b15801562000b2e57600080fd5b505af115801562000b43573d6000803e3d6000fd5b505050508073ffffffffffffffffffffffffffffffffffffffff1660008054906101000a900473ffffffffffffffffffffffffffffffffffffffff1673ffffffffffffffffffffffffffffffffffffffff16638da5cb5b6040518163ffffffff1660e01b8152600401602060405180830381865afa15801562000bca573d6000803e3d6000fd5b505050506040513d601f19601f8201168201806040525081019062000bf0919062002699565b73ffffffffffffffffffffffffffffffffffffffff160362000c4c577f08ac145f3e770071f0c37bc3ff2567bb378849e8681fd23c65de36a8e6a4955f600160405162000c3e919062002741565b60405180910390a162000c87565b7f08ac145f3e770071f0c37bc3ff2567bb378849e8681fd23c65de36a8e6a4955f600060405162000c7e9190620027e9565b60405180910390a15b50565b62000c946200017c565b60006001905060008054906101000a900473ffffffffffffffffffffffffffffffffffffffff1673ffffffffffffffffffffffffffffffffffffffff1663ae06c1b76103e96040518263ffffffff1660e01b815260040162000cf7919062002868565b600060405180830381600087803b15801562000d1257600080fd5b505af192505050801562000d24575060015b1562000d6957600090507f08ac145f3e770071f0c37bc3ff2567bb378849e8681fd23c65de36a8e6a4955f600060405162000d609190620028fb565b60405180910390a15b60008054906101000a900473ffffffffffffffffffffffffffffffffffffffff1673ffffffffffffffffffffffffffffffffffffffff1663a42dce8060006040518263ffffffff1660e01b815260040162000dc591906200267c565b600060405180830381600087803b15801562000de057600080fd5b505af192505050801562000df2575060015b1562000e3757600090507f08ac145f3e770071f0c37bc3ff2567bb378849e8681fd23c65de36a8e6a4955f600060405162000e2e9190620029a3565b60405180910390a15b60008054906101000a900473ffffffffffffffffffffffffffffffffffffffff1673ffffffffffffffffffffffffffffffffffffffff1663f2fde38b60006040518263ffffffff1660e01b815260040162000e9391906200267c565b600060405180830381600087803b15801562000eae57600080fd5b505af192505050801562000ec0575060015b1562000f0557600090507f08ac145f3e770071f0c37bc3ff2567bb378849e8681fd23c65de36a8e6a4955f600060405162000efc919062002a4b565b60405180910390a15b60008054906101000a900473ffffffffffffffffffffffffffffffffffffffff1673ffffffffffffffffffffffffffffffffffffffff16633280a8366103e76040518263ffffffff1660e01b815260040162000f62919062002ac0565b600060405180830381865afa92505050801562000fa457506040513d6000823e3d601f19601f8201168201806040525081019062000fa1919062001f5d565b60015b1562000fea5750600090507f08ac145f3e770071f0c37bc3ff2567bb378849e8681fd23c65de36a8e6a4955f600060405162000fe1919062002b53565b60405180910390a15b80156200102c577f08ac145f3e770071f0c37bc3ff2567bb378849e8681fd23c65de36a8e6a4955f600160405162001023919062002bd5565b60405180910390a15b50565b620010396200017c565b6000600190503073ffffffffffffffffffffffffffffffffffffffff1660008054906101000a900473ffffffffffffffffffffffffffffffffffffffff1673ffffffffffffffffffffffffffffffffffffffff16638da5cb5b6040518163ffffffff1660e01b8152600401602060405180830381865afa158015620010c2573d6000803e3d6000fd5b505050506040513d601f19601f82011682018060405250810190620010e8919062002699565b73ffffffffffffffffffffffffffffffffffffffff16146200114357600090507f08ac145f3e770071f0c37bc3ff2567bb378849e8681fd23c65de36a8e6a4955f60006040516200113a919062002c57565b60405180910390a15b600260009054906101000a900473ffffffffffffffffffffffffffffffffffffffff1673ffffffffffffffffffffffffffffffffffffffff1660008054906101000a900473ffffffffffffffffffffffffffffffffffffffff1673ffffffffffffffffffffffffffffffffffffffff1663c415b95c6040518163ffffffff1660e01b8152600401602060405180830381865afa158015620011e8573d6000803e3d6000fd5b505050506040513d601f19601f820116820180604052508101906200120e919062002699565b73ffffffffffffffffffffffffffffffffffffffff16146200126957600090507f08ac145f3e770071f0c37bc3ff2567bb378849e8681fd23c65de36a8e6a4955f600060405162001260919062002cd9565b60405180910390a15b6101f460008054906101000a900473ffffffffffffffffffffffffffffffffffffffff1673ffffffffffffffffffffffffffffffffffffffff1663a001ecdd6040518163ffffffff1660e01b8152600401602060405180830381865afa158015620012d8573d6000803e3d6000fd5b505050506040513d601f19601f82011682018060405250810190620012fe919062001c99565b146200134357600090507f08ac145f3e770071f0c37bc3ff2567bb378849e8681fd23c65de36a8e6a4955f60006040516200133a919062002d5b565b60405180910390a15b600160008054906101000a900473ffffffffffffffffffffffffffffffffffffffff1673ffffffffffffffffffffffffffffffffffffffff16639b22b9206040518163ffffffff1660e01b8152600401602060405180830381865afa158015620013b1573d6000803e3d6000fd5b505050506040513d601f19601f82011682018060405250810190620013d7919062001c99565b146200141c57600090507f08ac145f3e770071f0c37bc3ff2567bb378849e8681fd23c65de36a8e6a4955f600060405162001413919062002e03565b60405180910390a15b80156200145e577f08ac145f3e770071f0c37bc3ff2567bb378849e8681fd23c65de36a8e6a4955f600160405162001455919062002e85565b60405180910390a15b50565b6200146b6200017c565b6000739876543210987654321098765432109876543210905060008054906101000a900473ffffffffffffffffffffffffffffffffffffffff1673ffffffffffffffffffffffffffffffffffffffff1663a42dce80826040518263ffffffff1660e01b8152600401620014df91906200267c565b600060405180830381600087803b158015620014fa57600080fd5b505af11580156200150f573d6000803e3d6000fd5b505050508073ffffffffffffffffffffffffffffffffffffffff1660008054906101000a900473ffffffffffffffffffffffffffffffffffffffff1673ffffffffffffffffffffffffffffffffffffffff1663c415b95c6040518163ffffffff1660e01b8152600401602060405180830381865afa15801562001596573d6000803e3d6000fd5b505050506040513d601f19601f82011682018060405250810190620015bc919062002699565b73ffffffffffffffffffffffffffffffffffffffff160362001618577f08ac145f3e770071f0c37bc3ff2567bb378849e8681fd23c65de36a8e6a4955f60016040516200160a919062002f2d565b60405180910390a162001653565b7f08ac145f3e770071f0c37bc3ff2567bb378849e8681fd23c65de36a8e6a4955f60006040516200164a919062002fd5565b60405180910390a15b50565b670de0b6b3a7640000341015620016a4576040517f08c379a00000000000000000000000000000000000000000000000000000000081526004016200169b9062001b85565b60405180910390fd5b620016ae6200017c565b60006040518060400160405280601181526020017f7b226f726465724964223a22313233227d000000000000000000000000000000815250905060008060009054906101000a900473ffffffffffffffffffffffffffffffffffffffff1673ffffffffffffffffffffffffffffffffffffffff1663b7655d70670de0b6b3a7640000846040518363ffffffff1660e01b81526004016200174f919062001c30565b60206040518083038185885af11580156200176e573d6000803e3d6000fd5b50505050506040513d601f19601f8201168201806040525081019062001795919062001c99565b905060008054906101000a900473ffffffffffffffffffffffffffffffffffffffff1673ffffffffffffffffffffffffffffffffffffffff16634071ace58260026040518363ffffffff1660e01b8152600401620017f592919062003058565b600060405180830381600087803b1580156200181057600080fd5b505af115801562001825573d6000803e3d6000fd5b5050505060008060009054906101000a900473ffffffffffffffffffffffffffffffffffffffff1673ffffffffffffffffffffffffffffffffffffffff16633280a836836040518263ffffffff1660e01b815260040162001887919062001ccb565b600060405180830381865afa158015620018a5573d6000803e3d6000fd5b505050506040513d6000823e3d601f19601f82011682018060405250810190620018d0919062001f5d565b905060026003811115620018e957620018e862002151565b5b8160800151600381111562001903576200190262002151565b5b0362001949577f08ac145f3e770071f0c37bc3ff2567bb378849e8681fd23c65de36a8e6a4955f60016040516200193b9190620030fb565b60405180910390a162001984565b7f08ac145f3e770071f0c37bc3ff2567bb378849e8681fd23c65de36a8e6a4955f60006040516200197b9190620031a3565b60405180910390a15b505050565b671bc16d674ec80000341015620019d7576040517f08c379a0000000000000000000000000000000000000000000000000000000008152600401620019ce906200324b565b60405180910390fd5b620019e16200102f565b620019eb620002b2565b620019f5620008df565b620019ff62001461565b62001a0962001656565b62001a1362000a95565b62001a1d620006e6565b62001a2762000c8a565b7f08ac145f3e770071f0c37bc3ff2567bb378849e8681fd23c65de36a8e6a4955f600160405162001a599190620032bd565b60405180910390a1565b61235d80620032f083390190565b600073ffffffffffffffffffffffffffffffffffffffff82169050919050565b600062001a9e8262001a71565b9050919050565b62001ab08162001a91565b82525050565b6000819050919050565b62001acb8162001ab6565b82525050565b600060408201905062001ae8600083018562001aa5565b62001af7602083018462001ac0565b9392505050565b600082825260208201905092915050565b7f53656e64206174206c6561737420312045544820746f2072756e20746869732060008201527f7465737400000000000000000000000000000000000000000000000000000000602082015250565b600062001b6d60248362001afe565b915062001b7a8262001b0f565b604082019050919050565b6000602082019050818103600083015262001ba08162001b5e565b9050919050565b600081519050919050565b60005b8381101562001bd257808201518184015260208101905062001bb5565b60008484015250505050565b6000601f19601f8301169050919050565b600062001bfc8262001ba7565b62001c08818562001afe565b935062001c1a81856020860162001bb2565b62001c258162001bde565b840191505092915050565b6000602082019050818103600083015262001c4c818462001bef565b905092915050565b6000604051905090565b600080fd5b600080fd5b62001c738162001ab6565b811462001c7f57600080fd5b50565b60008151905062001c938162001c68565b92915050565b60006020828403121562001cb25762001cb162001c5e565b5b600062001cc28482850162001c82565b91505092915050565b600060208201905062001ce2600083018462001ac0565b92915050565b600080fd5b7f4e487b7100000000000000000000000000000000000000000000000000000000600052604160045260246000fd5b62001d278262001bde565b810181811067ffffffffffffffff8211171562001d495762001d4862001ced565b5b80604052505050565b600062001d5e62001c54565b905062001d6c828262001d1c565b919050565b600080fd5b62001d818162001a91565b811462001d8d57600080fd5b50565b60008151905062001da18162001d76565b92915050565b6004811062001db557600080fd5b50565b60008151905062001dc98162001da7565b92915050565b600080fd5b600080fd5b600067ffffffffffffffff82111562001df75762001df662001ced565b5b62001e028262001bde565b9050602081019050919050565b600062001e2662001e208462001dd9565b62001d52565b90508281526020810184848401111562001e455762001e4462001dd4565b5b62001e5284828562001bb2565b509392505050565b600082601f83011262001e725762001e7162001dcf565b5b815162001e8484826020860162001e0f565b91505092915050565b600060c0828403121562001ea65762001ea562001ce8565b5b62001eb260c062001d52565b9050600062001ec48482850162001c82565b600083015250602062001eda8482850162001d90565b602083015250604062001ef08482850162001c82565b604083015250606062001f068482850162001c82565b606083015250608062001f1c8482850162001db8565b60808301525060a082015167ffffffffffffffff81111562001f435762001f4262001d71565b5b62001f518482850162001e5a565b60a08301525092915050565b60006020828403121562001f765762001f7562001c5e565b5b600082015167ffffffffffffffff81111562001f975762001f9662001c63565b5b62001fa58482850162001e8d565b91505092915050565b60008115159050919050565b62001fc58162001fae565b82525050565b7f5061796d656e74204944206e6f742073657420636f72726563746c7900000000600082015250565b600062002003601c8362001afe565b9150620020108262001fcb565b602082019050919050565b600060408201905062002032600083018462001fba565b8181036020830152620020458162001ff4565b905092915050565b7f50617965722061646472657373206e6f742073657420636f72726563746c7900600082015250565b600062002085601f8362001afe565b915062002092826200204d565b602082019050919050565b6000604082019050620020b4600083018462001fba565b8181036020830152620020c78162002076565b905092915050565b7f5061796d656e7420616d6f756e74206e6f742073657420636f72726563746c79600082015250565b60006200210760208362001afe565b91506200211482620020cf565b602082019050919050565b600060408201905062002136600083018462001fba565b81810360208301526200214981620020f8565b905092915050565b7f4e487b7100000000000000000000000000000000000000000000000000000000600052602160045260246000fd5b7f5061796d656e7420737461747573206e6f742073657420746f20436f6d706c6560008201527f7465640000000000000000000000000000000000000000000000000000000000602082015250565b6000620021de60238362001afe565b9150620021eb8262002180565b604082019050919050565b60006040820190506200220d600083018462001fba565b81810360208301526200222081620021cf565b905092915050565b7f4e487b7100000000000000000000000000000000000000000000000000000000600052601160045260246000fd5b6000620022648262001ab6565b9150620022718362001ab6565b9250828202620022818162001ab6565b915082820484148315176200229b576200229a62002228565b5b5092915050565b7f4e487b7100000000000000000000000000000000000000000000000000000000600052601260045260246000fd5b6000620022de8262001ab6565b9150620022eb8362001ab6565b925082620022fe57620022fd620022a2565b5b828204905092915050565b6000620023168262001ab6565b9150620023238362001ab6565b92508282039050818111156200233e576200233d62002228565b5b92915050565b7f50726f63657373207061796d656e742074657374207061737365640000000000600082015250565b60006200237c601b8362001afe565b9150620023898262002344565b602082019050919050565b6000604082019050620023ab600083018462001fba565b8181036020830152620023be816200236d565b905092915050565b600081905092915050565b50565b6000620023e3600083620023c6565b9150620023f082620023d1565b600082019050919050565b60006200240882620023d4565b9150819050919050565b7f4661696c656420746f2073656e642045544820746f207061796d656e7420707260008201527f6f636573736f7200000000000000000000000000000000000000000000000000602082015250565b60006200247060278362001afe565b91506200247d8262002412565b604082019050919050565b60006020820190508181036000830152620024a38162002461565b9050919050565b7f456d657267656e63792077697468647261772074657374206578656375746564600082015250565b6000620024e260208362001afe565b9150620024ef82620024aa565b602082019050919050565b600060408201905062002511600083018462001fba565b81810360208301526200252481620024d3565b905092915050565b7f4665652070657263656e7461676520757064617465642073756363657373667560008201527f6c6c790000000000000000000000000000000000000000000000000000000000602082015250565b60006200258a60238362001afe565b915062002597826200252c565b604082019050919050565b6000604082019050620025b9600083018462001fba565b8181036020830152620025cc816200257b565b905092915050565b7f4665652070657263656e74616765206e6f74207570646174656420636f72726560008201527f63746c7900000000000000000000000000000000000000000000000000000000602082015250565b60006200263260248362001afe565b91506200263f82620025d4565b604082019050919050565b600060408201905062002661600083018462001fba565b8181036020830152620026748162002623565b905092915050565b600060208201905062002693600083018462001aa5565b92915050565b600060208284031215620026b257620026b162001c5e565b5b6000620026c28482850162001d90565b91505092915050565b7f4f776e657273686970207472616e73666572726564207375636365737366756c60008201527f6c79000000000000000000000000000000000000000000000000000000000000602082015250565b60006200272960228362001afe565b91506200273682620026cb565b604082019050919050565b600060408201905062002758600083018462001fba565b81810360208301526200276b816200271a565b905092915050565b7f4f776e657273686970206e6f74207472616e7366657272656420636f7272656360008201527f746c790000000000000000000000000000000000000000000000000000000000602082015250565b6000620027d160238362001afe565b9150620027de8262002773565b604082019050919050565b600060408201905062002800600083018462001fba565b81810360208301526200281381620027c2565b905092915050565b6000819050919050565b6000819050919050565b6000620028506200284a62002844846200281b565b62002825565b62001ab6565b9050919050565b62002862816200282f565b82525050565b60006020820190506200287f600083018462002857565b92915050565b7f53686f756c64206e6f7420616c6c6f772073657474696e67206665652070657260008201527f63656e746167652061626f766520313025000000000000000000000000000000602082015250565b6000620028e360318362001afe565b9150620028f08262002885565b604082019050919050565b600060408201905062002912600083018462001fba565b81810360208301526200292581620028d4565b905092915050565b7f53686f756c64206e6f7420616c6c6f772073657474696e672066656520636f6c60008201527f6c6563746f7220746f207a65726f206164647265737300000000000000000000602082015250565b60006200298b60368362001afe565b915062002998826200292d565b604082019050919050565b6000604082019050620029ba600083018462001fba565b8181036020830152620029cd816200297c565b905092915050565b7f53686f756c64206e6f7420616c6c6f77207472616e7366657272696e67206f7760008201527f6e65727368697020746f207a65726f2061646472657373000000000000000000602082015250565b600062002a3360378362001afe565b915062002a4082620029d5565b604082019050919050565b600060408201905062002a62600083018462001fba565b818103602083015262002a758162002a24565b905092915050565b6000819050919050565b600062002aa862002aa262002a9c8462002a7d565b62002825565b62001ab6565b9050919050565b62002aba8162002a87565b82525050565b600060208201905062002ad7600083018462002aaf565b92915050565b7f53686f756c64206e6f7420616c6c6f772067657474696e67206e6f6e2d65786960008201527f7374656e74207061796d656e7400000000000000000000000000000000000000602082015250565b600062002b3b602d8362001afe565b915062002b488262002add565b604082019050919050565b600060408201905062002b6a600083018462001fba565b818103602083015262002b7d8162002b2c565b905092915050565b7f416c6c206661696c757265206361736573207061737365640000000000000000600082015250565b600062002bbd60188362001afe565b915062002bca8262002b85565b602082019050919050565b600060408201905062002bec600083018462001fba565b818103602083015262002bff8162002bae565b905092915050565b7f4f776e6572206e6f742073657420636f72726563746c79000000000000000000600082015250565b600062002c3f60178362001afe565b915062002c4c8262002c07565b602082019050919050565b600060408201905062002c6e600083018462001fba565b818103602083015262002c818162002c30565b905092915050565b7f46656520636f6c6c6563746f72206e6f742073657420636f72726563746c7900600082015250565b600062002cc1601f8362001afe565b915062002cce8262002c89565b602082019050919050565b600060408201905062002cf0600083018462001fba565b818103602083015262002d038162002cb2565b905092915050565b7f4665652070657263656e74616765206e6f742073657420636f72726563746c79600082015250565b600062002d4360208362001afe565b915062002d508262002d0b565b602082019050919050565b600060408201905062002d72600083018462001fba565b818103602083015262002d858162002d34565b905092915050565b7f4e657874207061796d656e74204944206e6f7420696e697469616c697a65642060008201527f746f203100000000000000000000000000000000000000000000000000000000602082015250565b600062002deb60248362001afe565b915062002df88262002d8d565b604082019050919050565b600060408201905062002e1a600083018462001fba565b818103602083015262002e2d8162002ddc565b905092915050565b7f496e697469616c697a6174696f6e207465737420706173736564000000000000600082015250565b600062002e6d601a8362001afe565b915062002e7a8262002e35565b602082019050919050565b600060408201905062002e9c600083018462001fba565b818103602083015262002eaf8162002e5e565b905092915050565b7f46656520636f6c6c6563746f722075706461746564207375636365737366756c60008201527f6c79000000000000000000000000000000000000000000000000000000000000602082015250565b600062002f1560228362001afe565b915062002f228262002eb7565b604082019050919050565b600060408201905062002f44600083018462001fba565b818103602083015262002f578162002f06565b905092915050565b7f46656520636f6c6c6563746f72206e6f74207570646174656420636f7272656360008201527f746c790000000000000000000000000000000000000000000000000000000000602082015250565b600062002fbd60238362001afe565b915062002fca8262002f5f565b604082019050919050565b600060408201905062002fec600083018462001fba565b818103602083015262002fff8162002fae565b905092915050565b600481106200301b576200301a62002151565b5b50565b60008190506200302e8262003007565b919050565b600062003040826200301e565b9050919050565b620030528162003033565b82525050565b60006040820190506200306f600083018562001ac0565b6200307e602083018462003047565b9392505050565b7f5061796d656e742073746174757320757064617465642073756363657373667560008201527f6c6c790000000000000000000000000000000000000000000000000000000000602082015250565b6000620030e360238362001afe565b9150620030f08262003085565b604082019050919050565b600060408201905062003112600083018462001fba565b81810360208301526200312581620030d4565b905092915050565b7f5061796d656e7420737461747573206e6f74207570646174656420636f72726560008201527f63746c7900000000000000000000000000000000000000000000000000000000602082015250565b60006200318b60248362001afe565b915062003198826200312d565b604082019050919050565b6000604082019050620031ba600083018462001fba565b8181036020830152620031cd816200317c565b905092915050565b7f53656e64206174206c6561737420322045544820746f2072756e20616c6c207460008201527f6573747300000000000000000000000000000000000000000000000000000000602082015250565b60006200323360248362001afe565b91506200324082620031d5565b604082019050919050565b60006020820190508181036000830152620032668162003224565b9050919050565b7f416c6c20746573747320636f6d706c6574656400000000000000000000000000600082015250565b6000620032a560138362001afe565b9150620032b2826200326d565b602082019050919050565b6000604082019050620032d4600083018462001fba565b8181036020830152620032e78162003296565b90509291505056fe60806040523480156200001157600080fd5b506040516200235d3803806200235d833981810160405281019062000037919062000174565b336000806101000a81548173ffffffffffffffffffffffffffffffffffffffff021916908373ffffffffffffffffffffffffffffffffffffffff16021790555081600160006101000a81548173ffffffffffffffffffffffffffffffffffffffff021916908373ffffffffffffffffffffffffffffffffffffffff1602179055508060028190555060016004819055505050620001bb565b600080fd5b600073ffffffffffffffffffffffffffffffffffffffff82169050919050565b60006200010182620000d4565b9050919050565b6200011381620000f4565b81146200011f57600080fd5b50565b600081519050620001338162000108565b92915050565b6000819050919050565b6200014e8162000139565b81146200015a57600080fd5b50565b6000815190506200016e8162000143565b92915050565b600080604083850312156200018e576200018d620000cf565b5b60006200019e8582860162000122565b9250506020620001b1858286016200015d565b9150509250929050565b61219280620001cb6000396000f3fe6080604052600436106100a75760003560e01c8063a42dce8011610064578063a42dce80146101d5578063ae06c1b7146101fe578063b7655d7014610227578063c415b95c14610257578063db2e21bc14610282578063f2fde38b14610299576100a7565b80633280a836146100ac5780634071ace5146100e957806387d81789146101125780638da5cb5b146101545780639b22b9201461017f578063a001ecdd146101aa575b600080fd5b3480156100b857600080fd5b506100d360048036038101906100ce919061111a565b6102c2565b6040516100e09190611327565b60405180910390f35b3480156100f557600080fd5b50610110600480360381019061010b919061136e565b610488565b005b34801561011e57600080fd5b506101396004803603810190610134919061111a565b6105e8565b60405161014b96959493929190611425565b60405180910390f35b34801561016057600080fd5b506101696106d9565b604051610176919061148d565b60405180910390f35b34801561018b57600080fd5b506101946106fd565b6040516101a191906114a8565b60405180910390f35b3480156101b657600080fd5b506101bf610703565b6040516101cc91906114a8565b60405180910390f35b3480156101e157600080fd5b506101fc60048036038101906101f791906114ef565b610709565b005b34801561020a57600080fd5b506102256004803603810190610220919061111a565b6108a5565b005b610241600480360381019061023c9190611651565b6109bd565b60405161024e91906114a8565b60405180910390f35b34801561026357600080fd5b5061026c610d65565b604051610279919061148d565b60405180910390f35b34801561028e57600080fd5b50610297610d8b565b005b3480156102a557600080fd5b506102c060048036038101906102bb91906114ef565b610f32565b005b6102ca611072565b81600360008481526020019081526020016000206000015414610322576040517f08c379a00000000000000000000000000000000000000000000000000000000081526004016103199061170c565b60405180910390fd5b600360008381526020019081526020016000206040518060c0016040529081600082015481526020016001820160009054906101000a900473ffffffffffffffffffffffffffffffffffffffff1673ffffffffffffffffffffffffffffffffffffffff1673ffffffffffffffffffffffffffffffffffffffff16815260200160028201548152602001600382015481526020016004820160009054906101000a900460ff1660038111156103d9576103d8611197565b5b60038111156103eb576103ea611197565b5b81526020016005820180546103ff9061175b565b80601f016020809104026020016040519081016040528092919081815260200182805461042b9061175b565b80156104785780601f1061044d57610100808354040283529160200191610478565b820191906000526020600020905b81548152906001019060200180831161045b57829003601f168201915b5050505050815250509050919050565b60008054906101000a900473ffffffffffffffffffffffffffffffffffffffff1673ffffffffffffffffffffffffffffffffffffffff163373ffffffffffffffffffffffffffffffffffffffff1614610516576040517f08c379a000000000000000000000000000000000000000000000000000000000815260040161050d906117fe565b60405180910390fd5b8160036000848152602001908152602001600020600001541461056e576040517f08c379a00000000000000000000000000000000000000000000000000000000081526004016105659061170c565b60405180910390fd5b806003600084815260200190815260200160002060040160006101000a81548160ff021916908360038111156105a7576105a6611197565b5b0217905550817f80b185cd9274b6bbd0d09109374d8bea770733d0cd6300f274b21ae12784bd89826040516105dc919061181e565b60405180910390a25050565b60036020528060005260406000206000915090508060000154908060010160009054906101000a900473ffffffffffffffffffffffffffffffffffffffff16908060020154908060030154908060040160009054906101000a900460ff16908060050180546106569061175b565b80601f01602080910402602001604051908101604052809291908181526020018280546106829061175b565b80156106cf5780601f106106a4576101008083540402835291602001916106cf565b820191906000526020600020905b8154815290600101906020018083116106b257829003601f168201915b5050505050905086565b60008054906101000a900473ffffffffffffffffffffffffffffffffffffffff1681565b60045481565b60025481565b60008054906101000a900473ffffffffffffffffffffffffffffffffffffffff1673ffffffffffffffffffffffffffffffffffffffff163373ffffffffffffffffffffffffffffffffffffffff1614610797576040517f08c379a000000000000000000000000000000000000000000000000000000000815260040161078e906117fe565b60405180910390fd5b600073ffffffffffffffffffffffffffffffffffffffff168173ffffffffffffffffffffffffffffffffffffffff1603610806576040517f08c379a00000000000000000000000000000000000000000000000000000000081526004016107fd906118ab565b60405180910390fd5b7f5d16ad41baeb009cd23eb8f6c7cde5c2e0cd5acf4a33926ab488875c37c37f38600160009054906101000a900473ffffffffffffffffffffffffffffffffffffffff16826040516108599291906118cb565b60405180910390a180600160006101000a81548173ffffffffffffffffffffffffffffffffffffffff021916908373ffffffffffffffffffffffffffffffffffffffff16021790555050565b60008054906101000a900473ffffffffffffffffffffffffffffffffffffffff1673ffffffffffffffffffffffffffffffffffffffff163373ffffffffffffffffffffffffffffffffffffffff1614610933576040517f08c379a000000000000000000000000000000000000000000000000000000000815260040161092a906117fe565b60405180910390fd5b6103e8811115610978576040517f08c379a000000000000000000000000000000000000000000000000000000000815260040161096f90611966565b60405180910390fd5b7fb27c12a91635e11c22bffa7bd8e0a8735da52b94aaefd7f249776c7590ba7894600254826040516109ab929190611986565b60405180910390a18060028190555050565b6000803411610a01576040517f08c379a00000000000000000000000000000000000000000000000000000000081526004016109f890611a21565b60405180910390fd5b600060046000815480929190610a1690611a70565b919050559050600061271060025434610a2f9190611ab8565b610a399190611b29565b905060008134610a499190611b5a565b90506040518060c001604052808481526020013373ffffffffffffffffffffffffffffffffffffffff16815260200134815260200142815260200160016003811115610a9857610a97611197565b5b815260200186815250600360008581526020019081526020016000206000820151816000015560208201518160010160006101000a81548173ffffffffffffffffffffffffffffffffffffffff021916908373ffffffffffffffffffffffffffffffffffffffff160217905550604082015181600201556060820151816003015560808201518160040160006101000a81548160ff02191690836003811115610b4457610b43611197565b5b021790555060a0820151816005019081610b5e9190611d3a565b509050506000821115610c3b576000600160009054906101000a900473ffffffffffffffffffffffffffffffffffffffff1673ffffffffffffffffffffffffffffffffffffffff1683604051610bb390611e3d565b60006040518083038185875af1925050503d8060008114610bf0576040519150601f19603f3d011682016040523d82523d6000602084013e610bf5565b606091505b5050905080610c39576040517f08c379a0000000000000000000000000000000000000000000000000000000008152600401610c3090611ec4565b60405180910390fd5b505b60008060009054906101000a900473ffffffffffffffffffffffffffffffffffffffff1673ffffffffffffffffffffffffffffffffffffffff1682604051610c8290611e3d565b60006040518083038185875af1925050503d8060008114610cbf576040519150601f19603f3d011682016040523d82523d6000602084013e610cc4565b606091505b5050905080610d08576040517f08c379a0000000000000000000000000000000000000000000000000000000008152600401610cff90611f56565b60405180910390fd5b3373ffffffffffffffffffffffffffffffffffffffff16847f56e68943931ecdc94539433dc13c5d4e6e94ef91bb707051624d2fc38e21704a3489604051610d51929190611f76565b60405180910390a383945050505050919050565b600160009054906101000a900473ffffffffffffffffffffffffffffffffffffffff1681565b60008054906101000a900473ffffffffffffffffffffffffffffffffffffffff1673ffffffffffffffffffffffffffffffffffffffff163373ffffffffffffffffffffffffffffffffffffffff1614610e19576040517f08c379a0000000000000000000000000000000000000000000000000000000008152600401610e10906117fe565b60405180910390fd5b600047905060008111610e61576040517f08c379a0000000000000000000000000000000000000000000000000000000008152600401610e5890612018565b60405180910390fd5b60008060009054906101000a900473ffffffffffffffffffffffffffffffffffffffff1673ffffffffffffffffffffffffffffffffffffffff1682604051610ea890611e3d565b60006040518083038185875af1925050503d8060008114610ee5576040519150601f19603f3d011682016040523d82523d6000602084013e610eea565b606091505b5050905080610f2e576040517f08c379a0000000000000000000000000000000000000000000000000000000008152600401610f25906120aa565b60405180910390fd5b5050565b60008054906101000a900473ffffffffffffffffffffffffffffffffffffffff1673ffffffffffffffffffffffffffffffffffffffff163373ffffffffffffffffffffffffffffffffffffffff1614610fc0576040517f08c379a0000000000000000000000000000000000000000000000000000000008152600401610fb7906117fe565b60405180910390fd5b600073ffffffffffffffffffffffffffffffffffffffff168173ffffffffffffffffffffffffffffffffffffffff160361102f576040517f08c379a00000000000000000000000000000000000000000000000000000000081526004016110269061213c565b60405180910390fd5b806000806101000a81548173ffffffffffffffffffffffffffffffffffffffff021916908373ffffffffffffffffffffffffffffffffffffffff16021790555050565b6040518060c0016040528060008152602001600073ffffffffffffffffffffffffffffffffffffffff1681526020016000815260200160008152602001600060038111156110c3576110c2611197565b5b8152602001606081525090565b6000604051905090565b600080fd5b600080fd5b6000819050919050565b6110f7816110e4565b811461110257600080fd5b50565b600081359050611114816110ee565b92915050565b6000602082840312156111305761112f6110da565b5b600061113e84828501611105565b91505092915050565b611150816110e4565b82525050565b600073ffffffffffffffffffffffffffffffffffffffff82169050919050565b600061118182611156565b9050919050565b61119181611176565b82525050565b7f4e487b7100000000000000000000000000000000000000000000000000000000600052602160045260246000fd5b600481106111d7576111d6611197565b5b50565b60008190506111e8826111c6565b919050565b60006111f8826111da565b9050919050565b611208816111ed565b82525050565b600081519050919050565b600082825260208201905092915050565b60005b8381101561124857808201518184015260208101905061122d565b60008484015250505050565b6000601f19601f8301169050919050565b60006112708261120e565b61127a8185611219565b935061128a81856020860161122a565b61129381611254565b840191505092915050565b600060c0830160008301516112b66000860182611147565b5060208301516112c96020860182611188565b5060408301516112dc6040860182611147565b5060608301516112ef6060860182611147565b50608083015161130260808601826111ff565b5060a083015184820360a086015261131a8282611265565b9150508091505092915050565b60006020820190508181036000830152611341818461129e565b905092915050565b6004811061135657600080fd5b50565b60008135905061136881611349565b92915050565b60008060408385031215611385576113846110da565b5b600061139385828601611105565b92505060206113a485828601611359565b9150509250929050565b6113b7816110e4565b82525050565b6113c681611176565b82525050565b6113d5816111ed565b82525050565b600082825260208201905092915050565b60006113f78261120e565b61140181856113db565b935061141181856020860161122a565b61141a81611254565b840191505092915050565b600060c08201905061143a60008301896113ae565b61144760208301886113bd565b61145460408301876113ae565b61146160608301866113ae565b61146e60808301856113cc565b81810360a083015261148081846113ec565b9050979650505050505050565b60006020820190506114a260008301846113bd565b92915050565b60006020820190506114bd60008301846113ae565b92915050565b6114cc81611176565b81146114d757600080fd5b50565b6000813590506114e9816114c3565b92915050565b600060208284031215611505576115046110da565b5b6000611513848285016114da565b91505092915050565b600080fd5b600080fd5b7f4e487b7100000000000000000000000000000000000000000000000000000000600052604160045260246000fd5b61155e82611254565b810181811067ffffffffffffffff8211171561157d5761157c611526565b5b80604052505050565b60006115906110d0565b905061159c8282611555565b919050565b600067ffffffffffffffff8211156115bc576115bb611526565b5b6115c582611254565b9050602081019050919050565b82818337600083830152505050565b60006115f46115ef846115a1565b611586565b9050828152602081018484840111156116105761160f611521565b5b61161b8482856115d2565b509392505050565b600082601f8301126116385761163761151c565b5b81356116488482602086016115e1565b91505092915050565b600060208284031215611667576116666110da565b5b600082013567ffffffffffffffff811115611685576116846110df565b5b61169184828501611623565b91505092915050565b7f5061796d656e7450726f636573736f723a207061796d656e7420646f6573206e60008201527f6f74206578697374000000000000000000000000000000000000000000000000602082015250565b60006116f66028836113db565b91506117018261169a565b604082019050919050565b60006020820190508181036000830152611725816116e9565b9050919050565b7f4e487b7100000000000000000000000000000000000000000000000000000000600052602260045260246000fd5b6000600282049050600182168061177357607f821691505b6020821081036117865761178561172c565b5b50919050565b7f5061796d656e7450726f636573736f723a2063616c6c6572206973206e6f742060008201527f746865206f776e65720000000000000000000000000000000000000000000000602082015250565b60006117e86029836113db565b91506117f38261178c565b604082019050919050565b60006020820190508181036000830152611817816117db565b9050919050565b600060208201905061183360008301846113cc565b92915050565b7f5061796d656e7450726f636573736f723a2066656520636f6c6c6563746f722060008201527f63616e6e6f74206265207a65726f206164647265737300000000000000000000602082015250565b60006118956036836113db565b91506118a082611839565b604082019050919050565b600060208201905081810360008301526118c481611888565b9050919050565b60006040820190506118e060008301856113bd565b6118ed60208301846113bd565b9392505050565b7f5061796d656e7450726f636573736f723a206665652070657263656e7461676560008201527f2063616e6e6f7420657863656564203130250000000000000000000000000000602082015250565b60006119506032836113db565b915061195b826118f4565b604082019050919050565b6000602082019050818103600083015261197f81611943565b9050919050565b600060408201905061199b60008301856113ae565b6119a860208301846113ae565b9392505050565b7f5061796d656e7450726f636573736f723a207061796d656e7420616d6f756e7460008201527f206d7573742062652067726561746572207468616e2030000000000000000000602082015250565b6000611a0b6037836113db565b9150611a16826119af565b604082019050919050565b60006020820190508181036000830152611a3a816119fe565b9050919050565b7f4e487b7100000000000000000000000000000000000000000000000000000000600052601160045260246000fd5b6000611a7b826110e4565b91507fffffffffffffffffffffffffffffffffffffffffffffffffffffffffffffffff8203611aad57611aac611a41565b5b600182019050919050565b6000611ac3826110e4565b9150611ace836110e4565b9250828202611adc816110e4565b91508282048414831517611af357611af2611a41565b5b5092915050565b7f4e487b7100000000000000000000000000000000000000000000000000000000600052601260045260246000fd5b6000611b34826110e4565b9150611b3f836110e4565b925082611b4f57611b4e611afa565b5b828204905092915050565b6000611b65826110e4565b9150611b70836110e4565b9250828203905081811115611b8857611b87611a41565b5b92915050565b60008190508160005260206000209050919050565b60006020601f8301049050919050565b600082821b905092915050565b600060088302611bf07fffffffffffffffffffffffffffffffffffffffffffffffffffffffffffffffff82611bb3565b611bfa8683611bb3565b95508019841693508086168417925050509392505050565b6000819050919050565b6000611c37611c32611c2d846110e4565b611c12565b6110e4565b9050919050565b6000819050919050565b611c5183611c1c565b611c65611c5d82611c3e565b848454611bc0565b825550505050565b600090565b611c7a611c6d565b611c85818484611c48565b505050565b5b81811015611ca957611c9e600082611c72565b600181019050611c8b565b5050565b601f821115611cee57611cbf81611b8e565b611cc884611ba3565b81016020851015611cd7578190505b611ceb611ce385611ba3565b830182611c8a565b50505b505050565b600082821c905092915050565b6000611d1160001984600802611cf3565b1980831691505092915050565b6000611d2a8383611d00565b9150826002028217905092915050565b611d438261120e565b67ffffffffffffffff811115611d5c57611d5b611526565b5b611d66825461175b565b611d71828285611cad565b600060209050601f831160018114611da45760008415611d92578287015190505b611d9c8582611d1e565b865550611e04565b601f198416611db286611b8e565b60005b82811015611dda57848901518255600182019150602085019450602081019050611db5565b86831015611df75784890151611df3601f891682611d00565b8355505b6001600288020188555050505b505050505050565b600081905092915050565b50565b6000611e27600083611e0c565b9150611e3282611e17565b600082019050919050565b6000611e4882611e1a565b9150819050919050565b7f5061796d656e7450726f636573736f723a20666565207472616e73666572206660008201527f61696c6564000000000000000000000000000000000000000000000000000000602082015250565b6000611eae6025836113db565b9150611eb982611e52565b604082019050919050565b60006020820190508181036000830152611edd81611ea1565b9050919050565b7f5061796d656e7450726f636573736f723a207061796d656e74207472616e736660008201527f6572206661696c65640000000000000000000000000000000000000000000000602082015250565b6000611f406029836113db565b9150611f4b82611ee4565b604082019050919050565b60006020820190508181036000830152611f6f81611f33565b9050919050565b6000604082019050611f8b60008301856113ae565b8181036020830152611f9d81846113ec565b90509392505050565b7f5061796d656e7450726f636573736f723a206e6f2062616c616e636520746f2060008201527f7769746864726177000000000000000000000000000000000000000000000000602082015250565b60006120026028836113db565b915061200d82611fa6565b604082019050919050565b6000602082019050818103600083015261203181611ff5565b9050919050565b7f5061796d656e7450726f636573736f723a207769746864726177616c2066616960008201527f6c65640000000000000000000000000000000000000000000000000000000000602082015250565b60006120946023836113db565b915061209f82612038565b604082019050919050565b600060208201905081810360008301526120c381612087565b9050919050565b7f5061796d656e7450726f636573736f723a206e6577206f776e65722063616e6e60008201527f6f74206265207a65726f20616464726573730000000000000000000000000000602082015250565b60006121266032836113db565b9150612131826120ca565b604082019050919050565b6000602082019050818103600083015261215581612119565b905091905056fea264697066735822122050453f0a6ba80049eba357f054c0e9e110c4d1233797394247765367474aa1b064736f6c634300081100337b226f726465724964223a22313233222c22637573746f6d65724e616d65223a22546573742055736572227da2646970667358221220a0a764569502a29b5f18dba52efb9b8509be72f065fc48c1f6e5bdce04b530dd64736f6c63430008110033",
  "linkReferences": {},
  "deployedLinkReferences": {}
}