{
  "_format": "hh-sol-artifact-1",
  "contractName": "PaymentProcessor",
  "sourceName": "contracts/PaymentProcessor.sol",
  "abi": [
    {
      "inputs": [
        {
          "internalType": "address",
          "name": "_feeCollector",
          "type": "address"
        },
        {
          "internalType": "uint256",
          "name": "_feePercentage",
          "type": "uint256"
        }
      ],
      "stateMutability": "nonpayable",
      "type": "constructor"
    },
    {
      "anonymous": false,
      "inputs": [
        {
          "indexed": false,
          "internalType": "address",
          "name": "oldCollector",
          "type": "address"
        },
        {
          "indexed": false,
          "internalType": "address",
          "name": "newCollector",
          "type": "address"
        }
      ],
      "name": "FeeCollectorUpdated",
      "type": "event"
    },
    {
      "anonymous": false,
      "inputs": [
        {
          "indexed": false,
          "internalType": "uint256",
          "name": "oldFee",
          "type": "uint256"
        },
        {
          "indexed": false,
          "internalType": "uint256",
          "name": "newFee",
          "type": "uint256"
        }
      ],
      "name": "FeePercentageUpdated",
      "type": "event"
    },
    {
      "anonymous": false,
      "inputs": [
        {
          "indexed": true,
          "internalType": "uint256",
          "name": "paymentId",
          "type": "uint256"
        },
        {
          "indexed": true,
          "internalType": "address",
          "name": "payer",
          "type": "address"
        },
        {
          "indexed": false,
          "internalType": "uint256",
          "name": "amount",
          "type": "uint256"
        },
        {
          "indexed": false,
          "internalType": "string",
          "name": "metadata",
          "type": "string"
        }
      ],
      "name": "PaymentReceived",
      "type": "event"
    },
    {
      "anonymous": false,
      "inputs": [
        {
          "indexed": true,
          "internalType": "uint256",
          "name": "paymentId",
          "type": "uint256"
        },
        {
          "indexed": false,
          "internalType": "enum PaymentProcessor.PaymentStatus",
          "name": "status",
          "type": "uint8"
        }
      ],
      "name": "PaymentUpdated",
      "type": "event"
    },
    {
      "inputs": [],
      "name": "emergencyWithdraw",
      "outputs": [],
      "stateMutability": "nonpayable",
      "type": "function"
    },
    {
      "inputs": [],
      "name": "feeCollector",
      "outputs": [
        {
          "internalType": "address",
          "name": "",
          "type": "address"
        }
      ],
      "stateMutability": "view",
      "type": "function"
    },
    {
      "inputs": [],
      "name": "feePercentage",
      "outputs": [
        {
          "internalType": "uint256",
          "name": "",
          "type": "uint256"
        }
      ],
      "stateMutability": "view",
      "type": "function"
    },
    {
      "inputs": [
        {
          "internalType": "uint256",
          "name": "_paymentId",
          "type": "uint256"
        }
      ],
      "name": "getPayment",
      "outputs": [
        {
          "components": [
            {
              "internalType": "uint256",
              "name": "id",
              "type": "uint256"
            },
            {
              "internalType": "address",
              "name": "payer",
              "type": "address"
            },
            {
              "internalType": "uint256",
              "name": "amount",
              "type": "uint256"
            },
            {
              "internalType": "uint256",
              "name": "timestamp",
              "type": "uint256"
            },
            {
              "internalType": "enum PaymentProcessor.PaymentStatus",
              "name": "status",
              "type": "uint8"
            },
            {
              "internalType": "string",
              "name": "metadata",
              "type": "string"
            }
          ],
          "internalType": "struct PaymentProcessor.Payment",
          "name": "",
          "type": "tuple"
        }
      ],
      "stateMutability": "view",
      "type": "function"
    },
    {
      "inputs": [],
      "name": "nextPaymentId",
      "outputs": [
        {
          "internalType": "uint256",
          "name": "",
          "type": "uint256"
        }
      ],
      "stateMutability": "view",
      "type": "function"
    },
    {
      "inputs": [],
      "name": "owner",
      "outputs": [
        {
          "internalType": "address",
          "name": "",
          "type": "address"
        }
      ],
      "stateMutability": "view",
      "type": "function"
    },
    {
      "inputs": [
        {
          "internalType": "uint256",
          "name": "",
          "type": "uint256"
        }
      ],
      "name": "payments",
      "outputs": [
        {
          "internalType": "uint256",
          "name": "id",
          "type": "uint256"
        },
        {
          "internalType": "address",
          "name": "payer",
          "type": "address"
        },
        {
          "internalType": "uint256",
          "name": "amount",
          "type": "uint256"
        },
        {
          "internalType": "uint256",
          "name": "timestamp",
          "type": "uint256"
        },
        {
          "internalType": "enum PaymentProcessor.PaymentStatus",
          "name": "status",
          "type": "uint8"
        },
        {
          "internalType": "string",
          "name": "metadata",
          "type": "string"
        }
      ],
      "stateMutability": "view",
      "type": "function"
    },
    {
      "inputs": [
        {
          "internalType": "string",
          "name": "_metadata",
          "type": "string"
        }
      ],
      "name": "processPayment",
      "outputs": [
        {
          "internalType": "uint256",
          "name": "",
          "type": "uint256"
        }
      ],
      "stateMutability": "payable",
      "type": "function"
    },
    {
      "inputs": [
        {
          "internalType": "address",
          "name": "_feeCollector",
          "type": "address"
        }
      ],
      "name": "setFeeCollector",
      "outputs": [],
      "stateMutability": "nonpayable",
      "type": "function"
    },
    {
      "inputs": [
        {
          "internalType": "uint256",
          "name": "_feePercentage",
          "type": "uint256"
        }
      ],
      "name": "setFeePercentage",
      "outputs": [],
      "stateMutability": "nonpayable",
      "type": "function"
    },
    {
      "inputs": [
        {
          "internalType": "address",
          "name": "_newOwner",
          "type": "address"
        }
      ],
      "name": "transferOwnership",
      "outputs": [],
      "stateMutability": "nonpayable",
      "type": "function"
    },
    {
      "inputs": [
        {
          "internalType": "uint256",
          "name": "_paymentId",
          "type": "uint256"
        },
        {
          "internalType": "enum PaymentProcessor.PaymentStatus",
          "name": "_status",
          "type": "uint8"
        }
      ],
      "name": "updatePaymentStatus",
      "outputs": [],
      "stateMutability": "nonpayable",
      "type": "function"
    }
  ],
  "bytecode": "0x60806040523480156200001157600080fd5b506040516200235d3803806200235d833981810160405281019062000037919062000174565b336000806101000a81548173ffffffffffffffffffffffffffffffffffffffff021916908373ffffffffffffffffffffffffffffffffffffffff16021790555081600160006101000a81548173ffffffffffffffffffffffffffffffffffffffff021916908373ffffffffffffffffffffffffffffffffffffffff1602179055508060028190555060016004819055505050620001bb565b600080fd5b600073ffffffffffffffffffffffffffffffffffffffff82169050919050565b60006200010182620000d4565b9050919050565b6200011381620000f4565b81146200011f57600080fd5b50565b600081519050620001338162000108565b92915050565b6000819050919050565b6200014e8162000139565b81146200015a57600080fd5b50565b6000815190506200016e8162000143565b92915050565b600080604083850312156200018e576200018d620000cf565b5b60006200019e8582860162000122565b9250506020620001b1858286016200015d565b9150509250929050565b61219280620001cb6000396000f3fe6080604052600436106100a75760003560e01c8063a42dce8011610064578063a42dce80146101d5578063ae06c1b7146101fe578063b7655d7014610227578063c415b95c14610257578063db2e21bc14610282578063f2fde38b14610299576100a7565b80633280a836146100ac5780634071ace5146100e957806387d81789146101125780638da5cb5b146101545780639b22b9201461017f578063a001ecdd146101aa575b600080fd5b3480156100b857600080fd5b506100d360048036038101906100ce919061111a565b6102c2565b6040516100e09190611327565b60405180910390f35b3480156100f557600080fd5b50610110600480360381019061010b919061136e565b610488565b005b34801561011e57600080fd5b506101396004803603810190610134919061111a565b6105e8565b60405161014b96959493929190611425565b60405180910390f35b34801561016057600080fd5b506101696106d9565b604051610176919061148d565b60405180910390f35b34801561018b57600080fd5b506101946106fd565b6040516101a191906114a8565b60405180910390f35b3480156101b657600080fd5b506101bf610703565b6040516101cc91906114a8565b60405180910390f35b3480156101e157600080fd5b506101fc60048036038101906101f791906114ef565b610709565b005b34801561020a57600080fd5b506102256004803603810190610220919061111a565b6108a5565b005b610241600480360381019061023c9190611651565b6109bd565b60405161024e91906114a8565b60405180910390f35b34801561026357600080fd5b5061026c610d65565b604051610279919061148d565b60405180910390f35b34801561028e57600080fd5b50610297610d8b565b005b3480156102a557600080fd5b506102c060048036038101906102bb91906114ef565b610f32565b005b6102ca611072565b81600360008481526020019081526020016000206000015414610322576040517f08c379a00000000000000000000000000000000000000000000000000000000081526004016103199061170c565b60405180910390fd5b600360008381526020019081526020016000206040518060c0016040529081600082015481526020016001820160009054906101000a900473ffffffffffffffffffffffffffffffffffffffff1673ffffffffffffffffffffffffffffffffffffffff1673ffffffffffffffffffffffffffffffffffffffff16815260200160028201548152602001600382015481526020016004820160009054906101000a900460ff1660038111156103d9576103d8611197565b5b60038111156103eb576103ea611197565b5b81526020016005820180546103ff9061175b565b80601f016020809104026020016040519081016040528092919081815260200182805461042b9061175b565b80156104785780601f1061044d57610100808354040283529160200191610478565b820191906000526020600020905b81548152906001019060200180831161045b57829003601f168201915b5050505050815250509050919050565b60008054906101000a900473ffffffffffffffffffffffffffffffffffffffff1673ffffffffffffffffffffffffffffffffffffffff163373ffffffffffffffffffffffffffffffffffffffff1614610516576040517f08c379a000000000000000000000000000000000000000000000000000000000815260040161050d906117fe565b60405180910390fd5b8160036000848152602001908152602001600020600001541461056e576040517f08c379a00000000000000000000000000000000000000000000000000000000081526004016105659061170c565b60405180910390fd5b806003600084815260200190815260200160002060040160006101000a81548160ff021916908360038111156105a7576105a6611197565b5b0217905550817f80b185cd9274b6bbd0d09109374d8bea770733d0cd6300f274b21ae12784bd89826040516105dc919061181e565b60405180910390a25050565b60036020528060005260406000206000915090508060000154908060010160009054906101000a900473ffffffffffffffffffffffffffffffffffffffff16908060020154908060030154908060040160009054906101000a900460ff16908060050180546106569061175b565b80601f01602080910402602001604051908101604052809291908181526020018280546106829061175b565b80156106cf5780601f106106a4576101008083540402835291602001916106cf565b820191906000526020600020905b8154815290600101906020018083116106b257829003601f168201915b5050505050905086565b60008054906101000a900473ffffffffffffffffffffffffffffffffffffffff1681565b60045481565b60025481565b60008054906101000a900473ffffffffffffffffffffffffffffffffffffffff1673ffffffffffffffffffffffffffffffffffffffff163373ffffffffffffffffffffffffffffffffffffffff1614610797576040517f08c379a000000000000000000000000000000000000000000000000000000000815260040161078e906117fe565b60405180910390fd5b600073ffffffffffffffffffffffffffffffffffffffff168173ffffffffffffffffffffffffffffffffffffffff1603610806576040517f08c379a00000000000000000000000000000000000000000000000000000000081526004016107fd906118ab565b60405180910390fd5b7f5d16ad41baeb009cd23eb8f6c7cde5c2e0cd5acf4a33926ab488875c37c37f38600160009054906101000a900473ffffffffffffffffffffffffffffffffffffffff16826040516108599291906118cb565b60405180910390a180600160006101000a81548173ffffffffffffffffffffffffffffffffffffffff021916908373ffffffffffffffffffffffffffffffffffffffff16021790555050565b60008054906101000a900473ffffffffffffffffffffffffffffffffffffffff1673ffffffffffffffffffffffffffffffffffffffff163373ffffffffffffffffffffffffffffffffffffffff1614610933576040517f08c379a000000000000000000000000000000000000000000000000000000000815260040161092a906117fe565b60405180910390fd5b6103e8811115610978576040517f08c379a000000000000000000000000000000000000000000000000000000000815260040161096f90611966565b60405180910390fd5b7fb27c12a91635e11c22bffa7bd8e0a8735da52b94aaefd7f249776c7590ba7894600254826040516109ab929190611986565b60405180910390a18060028190555050565b6000803411610a01576040517f08c379a00000000000000000000000000000000000000000000000000000000081526004016109f890611a21565b60405180910390fd5b600060046000815480929190610a1690611a70565b919050559050600061271060025434610a2f9190611ab8565b610a399190611b29565b905060008134610a499190611b5a565b90506040518060c001604052808481526020013373ffffffffffffffffffffffffffffffffffffffff16815260200134815260200142815260200160016003811115610a9857610a97611197565b5b815260200186815250600360008581526020019081526020016000206000820151816000015560208201518160010160006101000a81548173ffffffffffffffffffffffffffffffffffffffff021916908373ffffffffffffffffffffffffffffffffffffffff160217905550604082015181600201556060820151816003015560808201518160040160006101000a81548160ff02191690836003811115610b4457610b43611197565b5b021790555060a0820151816005019081610b5e9190611d3a565b509050506000821115610c3b576000600160009054906101000a900473ffffffffffffffffffffffffffffffffffffffff1673ffffffffffffffffffffffffffffffffffffffff1683604051610bb390611e3d565b60006040518083038185875af1925050503d8060008114610bf0576040519150601f19603f3d011682016040523d82523d6000602084013e610bf5565b606091505b5050905080610c39576040517f08c379a0000000000000000000000000000000000000000000000000000000008152600401610c3090611ec4565b60405180910390fd5b505b60008060009054906101000a900473ffffffffffffffffffffffffffffffffffffffff1673ffffffffffffffffffffffffffffffffffffffff1682604051610c8290611e3d565b60006040518083038185875af1925050503d8060008114610cbf576040519150601f19603f3d011682016040523d82523d6000602084013e610cc4565b606091505b5050905080610d08576040517f08c379a0000000000000000000000000000000000000000000000000000000008152600401610cff90611f56565b60405180910390fd5b3373ffffffffffffffffffffffffffffffffffffffff16847f56e68943931ecdc94539433dc13c5d4e6e94ef91bb707051624d2fc38e21704a3489604051610d51929190611f76565b60405180910390a383945050505050919050565b600160009054906101000a900473ffffffffffffffffffffffffffffffffffffffff1681565b60008054906101000a900473ffffffffffffffffffffffffffffffffffffffff1673ffffffffffffffffffffffffffffffffffffffff163373ffffffffffffffffffffffffffffffffffffffff1614610e19576040517f08c379a0000000000000000000000000000000000000000000000000000000008152600401610e10906117fe565b60405180910390fd5b600047905060008111610e61576040517f08c379a0000000000000000000000000000000000000000000000000000000008152600401610e5890612018565b60405180910390fd5b60008060009054906101000a900473ffffffffffffffffffffffffffffffffffffffff1673ffffffffffffffffffffffffffffffffffffffff1682604051610ea890611e3d565b60006040518083038185875af1925050503d8060008114610ee5576040519150601f19603f3d011682016040523d82523d6000602084013e610eea565b606091505b5050905080610f2e576040517f08c379a0000000000000000000000000000000000000000000000000000000008152600401610f25906120aa565b60405180910390fd5b5050565b60008054906101000a900473ffffffffffffffffffffffffffffffffffffffff1673ffffffffffffffffffffffffffffffffffffffff163373ffffffffffffffffffffffffffffffffffffffff1614610fc0576040517f08c379a0000000000000000000000000000000000000000000000000000000008152600401610fb7906117fe565b60405180910390fd5b600073ffffffffffffffffffffffffffffffffffffffff168173ffffffffffffffffffffffffffffffffffffffff160361102f576040517f08c379a00000000000000000000000000000000000000000000000000000000081526004016110269061213c565b60405180910390fd5b806000806101000a81548173ffffffffffffffffffffffffffffffffffffffff021916908373ffffffffffffffffffffffffffffffffffffffff16021790555050565b6040518060c0016040528060008152602001600073ffffffffffffffffffffffffffffffffffffffff1681526020016000815260200160008152602001600060038111156110c3576110c2611197565b5b8152602001606081525090565b6000604051905090565b600080fd5b600080fd5b6000819050919050565b6110f7816110e4565b811461110257600080fd5b50565b600081359050611114816110ee565b92915050565b6000602082840312156111305761112f6110da565b5b600061113e84828501611105565b91505092915050565b611150816110e4565b82525050565b600073ffffffffffffffffffffffffffffffffffffffff82169050919050565b600061118182611156565b9050919050565b61119181611176565b82525050565b7f4e487b7100000000000000000000000000000000000000000000000000000000600052602160045260246000fd5b600481106111d7576111d6611197565b5b50565b60008190506111e8826111c6565b919050565b60006111f8826111da565b9050919050565b611208816111ed565b82525050565b600081519050919050565b600082825260208201905092915050565b60005b8381101561124857808201518184015260208101905061122d565b60008484015250505050565b6000601f19601f8301169050919050565b60006112708261120e565b61127a8185611219565b935061128a81856020860161122a565b61129381611254565b840191505092915050565b600060c0830160008301516112b66000860182611147565b5060208301516112c96020860182611188565b5060408301516112dc6040860182611147565b5060608301516112ef6060860182611147565b50608083015161130260808601826111ff565b5060a083015184820360a086015261131a8282611265565b9150508091505092915050565b60006020820190508181036000830152611341818461129e565b905092915050565b6004811061135657600080fd5b50565b60008135905061136881611349565b92915050565b60008060408385031215611385576113846110da565b5b600061139385828601611105565b92505060206113a485828601611359565b9150509250929050565b6113b7816110e4565b82525050565b6113c681611176565b82525050565b6113d5816111ed565b82525050565b600082825260208201905092915050565b60006113f78261120e565b61140181856113db565b935061141181856020860161122a565b61141a81611254565b840191505092915050565b600060c08201905061143a60008301896113ae565b61144760208301886113bd565b61145460408301876113ae565b61146160608301866113ae565b61146e60808301856113cc565b81810360a083015261148081846113ec565b9050979650505050505050565b60006020820190506114a260008301846113bd565b92915050565b60006020820190506114bd60008301846113ae565b92915050565b6114cc81611176565b81146114d757600080fd5b50565b6000813590506114e9816114c3565b92915050565b600060208284031215611505576115046110da565b5b6000611513848285016114da565b91505092915050565b600080fd5b600080fd5b7f4e487b7100000000000000000000000000000000000000000000000000000000600052604160045260246000fd5b61155e82611254565b810181811067ffffffffffffffff8211171561157d5761157c611526565b5b80604052505050565b60006115906110d0565b905061159c8282611555565b919050565b600067ffffffffffffffff8211156115bc576115bb611526565b5b6115c582611254565b9050602081019050919050565b82818337600083830152505050565b60006115f46115ef846115a1565b611586565b9050828152602081018484840111156116105761160f611521565b5b61161b8482856115d2565b509392505050565b600082601f8301126116385761163761151c565b5b81356116488482602086016115e1565b91505092915050565b600060208284031215611667576116666110da565b5b600082013567ffffffffffffffff811115611685576116846110df565b5b61169184828501611623565b91505092915050565b7f5061796d656e7450726f636573736f723a207061796d656e7420646f6573206e60008201527f6f74206578697374000000000000000000000000000000000000000000000000602082015250565b60006116f66028836113db565b91506117018261169a565b604082019050919050565b60006020820190508181036000830152611725816116e9565b9050919050565b7f4e487b7100000000000000000000000000000000000000000000000000000000600052602260045260246000fd5b6000600282049050600182168061177357607f821691505b6020821081036117865761178561172c565b5b50919050565b7f5061796d656e7450726f636573736f723a2063616c6c6572206973206e6f742060008201527f746865206f776e65720000000000000000000000000000000000000000000000602082015250565b60006117e86029836113db565b91506117f38261178c565b604082019050919050565b60006020820190508181036000830152611817816117db565b9050919050565b600060208201905061183360008301846113cc565b92915050565b7f5061796d656e7450726f636573736f723a2066656520636f6c6c6563746f722060008201527f63616e6e6f74206265207a65726f206164647265737300000000000000000000602082015250565b60006118956036836113db565b91506118a082611839565b604082019050919050565b600060208201905081810360008301526118c481611888565b9050919050565b60006040820190506118e060008301856113bd565b6118ed60208301846113bd565b9392505050565b7f5061796d656e7450726f636573736f723a206665652070657263656e7461676560008201527f2063616e6e6f7420657863656564203130250000000000000000000000000000602082015250565b60006119506032836113db565b915061195b826118f4565b604082019050919050565b6000602082019050818103600083015261197f81611943565b9050919050565b600060408201905061199b60008301856113ae565b6119a860208301846113ae565b9392505050565b7f5061796d656e7450726f636573736f723a207061796d656e7420616d6f756e7460008201527f206d7573742062652067726561746572207468616e2030000000000000000000602082015250565b6000611a0b6037836113db565b9150611a16826119af565b604082019050919050565b60006020820190508181036000830152611a3a816119fe565b9050919050565b7f4e487b7100000000000000000000000000000000000000000000000000000000600052601160045260246000fd5b6000611a7b826110e4565b91507fffffffffffffffffffffffffffffffffffffffffffffffffffffffffffffffff8203611aad57611aac611a41565b5b600182019050919050565b6000611ac3826110e4565b9150611ace836110e4565b9250828202611adc816110e4565b91508282048414831517611af357611af2611a41565b5b5092915050565b7f4e487b7100000000000000000000000000000000000000000000000000000000600052601260045260246000fd5b6000611b34826110e4565b9150611b3f836110e4565b925082611b4f57611b4e611afa565b5b828204905092915050565b6000611b65826110e4565b9150611b70836110e4565b9250828203905081811115611b8857611b87611a41565b5b92915050565b60008190508160005260206000209050919050565b60006020601f8301049050919050565b600082821b905092915050565b600060088302611bf07fffffffffffffffffffffffffffffffffffffffffffffffffffffffffffffffff82611bb3565b611bfa8683611bb3565b95508019841693508086168417925050509392505050565b6000819050919050565b6000611c37611c32611c2d846110e4565b611c12565b6110e4565b9050919050565b6000819050919050565b611c5183611c1c565b611c65611c5d82611c3e565b848454611bc0565b825550505050565b600090565b611c7a611c6d565b611c85818484611c48565b505050565b5b81811015611ca957611c9e600082611c72565b600181019050611c8b565b5050565b601f821115611cee57611cbf81611b8e565b611cc884611ba3565b81016020851015611cd7578190505b611ceb611ce385611ba3565b830182611c8a565b50505b505050565b600082821c905092915050565b6000611d1160001984600802611cf3565b1980831691505092915050565b6000611d2a8383611d00565b9150826002028217905092915050565b611d438261120e565b67ffffffffffffffff811115611d5c57611d5b611526565b5b611d66825461175b565b611d71828285611cad565b600060209050601f831160018114611da45760008415611d92578287015190505b611d9c8582611d1e565b865550611e04565b601f198416611db286611b8e565b60005b82811015611dda57848901518255600182019150602085019450602081019050611db5565b86831015611df75784890151611df3601f891682611d00565b8355505b6001600288020188555050505b505050505050565b600081905092915050565b50565b6000611e27600083611e0c565b9150611e3282611e17565b600082019050919050565b6000611e4882611e1a565b9150819050919050565b7f5061796d656e7450726f636573736f723a20666565207472616e73666572206660008201527f61696c6564000000000000000000000000000000000000000000000000000000602082015250565b6000611eae6025836113db565b9150611eb982611e52565b604082019050919050565b60006020820190508181036000830152611edd81611ea1565b9050919050565b7f5061796d656e7450726f636573736f723a207061796d656e74207472616e736660008201527f6572206661696c65640000000000000000000000000000000000000000000000602082015250565b6000611f406029836113db565b9150611f4b82611ee4565b604082019050919050565b60006020820190508181036000830152611f6f81611f33565b9050919050565b6000604082019050611f8b60008301856113ae565b8181036020830152611f9d81846113ec565b90509392505050565b7f5061796d656e7450726f636573736f723a206e6f2062616c616e636520746f2060008201527f7769746864726177000000000000000000000000000000000000000000000000602082015250565b60006120026028836113db565b915061200d82611fa6565b604082019050919050565b6000602082019050818103600083015261203181611ff5565b9050919050565b7f5061796d656e7450726f636573736f723a207769746864726177616c2066616960008201527f6c65640000000000000000000000000000000000000000000000000000000000602082015250565b60006120946023836113db565b915061209f82612038565b604082019050919050565b600060208201905081810360008301526120c381612087565b9050919050565b7f5061796d656e7450726f636573736f723a206e6577206f776e65722063616e6e60008201527f6f74206265207a65726f20616464726573730000000000000000000000000000602082015250565b60006121266032836113db565b9150612131826120ca565b604082019050919050565b6000602082019050818103600083015261215581612119565b905091905056fea264697066735822122050453f0a6ba80049eba357f054c0e9e110c4d1233797394247765367474aa1b064736f6c63430008110033",
  "linkReferences": {},
  "deployedLinkReferences": {}
}