{
  "_format": "hh-sol-artifact-1",
  "contractName": "SubscriptionManager",
  "sourceName": "contracts/SubscriptionManager.sol",
  "abi": [
    {
      "inputs": [
        {
          "internalType": "address",
          "name": "_paymentProcessorAddress",
          "type": "address"
        }
      ],
      "stateMutability": "nonpayable",
      "type": "constructor"
    },
    {
      "anonymous": false,
      "inputs": [
        {
          "indexed": false,
          "internalType": "enum SubscriptionManager.SubscriptionTier",
          "name": "tier",
          "type": "uint8"
        },
        {
          "indexed": false,
          "internalType": "uint256",
          "name": "monthlyPrice",
          "type": "uint256"
        },
        {
          "indexed": false,
          "internalType": "uint256",
          "name": "annualPrice",
          "type": "uint256"
        }
      ],
      "name": "PriceUpdated",
      "type": "event"
    },
    {
      "anonymous": false,
      "inputs": [
        {
          "indexed": true,
          "internalType": "uint256",
          "name": "subscriptionId",
          "type": "uint256"
        },
        {
          "indexed": true,
          "internalType": "address",
          "name": "subscriber",
          "type": "address"
        }
      ],
      "name": "SubscriptionCancelled",
      "type": "event"
    },
    {
      "anonymous": false,
      "inputs": [
        {
          "indexed": true,
          "internalType": "uint256",
          "name": "subscriptionId",
          "type": "uint256"
        },
        {
          "indexed": true,
          "internalType": "address",
          "name": "subscriber",
          "type": "address"
        },
        {
          "indexed": false,
          "internalType": "enum SubscriptionManager.SubscriptionTier",
          "name": "tier",
          "type": "uint8"
        },
        {
          "indexed": false,
          "internalType": "enum SubscriptionManager.BillingPeriod",
          "name": "period",
          "type": "uint8"
        },
        {
          "indexed": false,
          "internalType": "uint256",
          "name": "endDate",
          "type": "uint256"
        }
      ],
      "name": "SubscriptionCreated",
      "type": "event"
    },
    {
      "anonymous": false,
      "inputs": [
        {
          "indexed": true,
          "internalType": "uint256",
          "name": "subscriptionId",
          "type": "uint256"
        },
        {
          "indexed": true,
          "internalType": "address",
          "name": "subscriber",
          "type": "address"
        },
        {
          "indexed": false,
          "internalType": "uint256",
          "name": "newEndDate",
          "type": "uint256"
        }
      ],
      "name": "SubscriptionRenewed",
      "type": "event"
    },
    {
      "anonymous": false,
      "inputs": [
        {
          "indexed": true,
          "internalType": "uint256",
          "name": "subscriptionId",
          "type": "uint256"
        },
        {
          "indexed": true,
          "internalType": "address",
          "name": "subscriber",
          "type": "address"
        },
        {
          "indexed": false,
          "internalType": "enum SubscriptionManager.SubscriptionTier",
          "name": "oldTier",
          "type": "uint8"
        },
        {
          "indexed": false,
          "internalType": "enum SubscriptionManager.SubscriptionTier",
          "name": "newTier",
          "type": "uint8"
        }
      ],
      "name": "SubscriptionTierChanged",
      "type": "event"
    },
    {
      "inputs": [],
      "name": "cancelSubscription",
      "outputs": [],
      "stateMutability": "nonpayable",
      "type": "function"
    },
    {
      "inputs": [
        {
          "internalType": "enum SubscriptionManager.SubscriptionTier",
          "name": "_newTier",
          "type": "uint8"
        },
        {
          "internalType": "enum SubscriptionManager.BillingPeriod",
          "name": "_newPeriod",
          "type": "uint8"
        }
      ],
      "name": "changeTier",
      "outputs": [
        {
          "internalType": "uint256",
          "name": "",
          "type": "uint256"
        }
      ],
      "stateMutability": "view",
      "type": "function"
    },
    {
      "inputs": [
        {
          "internalType": "address",
          "name": "_user",
          "type": "address"
        }
      ],
      "name": "getSubscription",
      "outputs": [
        {
          "components": [
            {
              "internalType": "uint256",
              "name": "id",
              "type": "uint256"
            },
            {
              "internalType": "address",
              "name": "subscriber",
              "type": "address"
            },
            {
              "internalType": "enum SubscriptionManager.SubscriptionTier",
              "name": "tier",
              "type": "uint8"
            },
            {
              "internalType": "enum SubscriptionManager.BillingPeriod",
              "name": "billingPeriod",
              "type": "uint8"
            },
            {
              "internalType": "uint256",
              "name": "startDate",
              "type": "uint256"
            },
            {
              "internalType": "uint256",
              "name": "endDate",
              "type": "uint256"
            },
            {
              "internalType": "uint256",
              "name": "lastPaymentId",
              "type": "uint256"
            },
            {
              "internalType": "bool",
              "name": "autoRenew",
              "type": "bool"
            },
            {
              "internalType": "bool",
              "name": "active",
              "type": "bool"
            }
          ],
          "internalType": "struct SubscriptionManager.Subscription",
          "name": "",
          "type": "tuple"
        }
      ],
      "stateMutability": "view",
      "type": "function"
    },
    {
      "inputs": [
        {
          "internalType": "address",
          "name": "_user",
          "type": "address"
        }
      ],
      "name": "getSubscriptionHistory",
      "outputs": [
        {
          "components": [
            {
              "internalType": "uint256",
              "name": "id",
              "type": "uint256"
            },
            {
              "internalType": "address",
              "name": "subscriber",
              "type": "address"
            },
            {
              "internalType": "enum SubscriptionManager.SubscriptionTier",
              "name": "tier",
              "type": "uint8"
            },
            {
              "internalType": "enum SubscriptionManager.BillingPeriod",
              "name": "billingPeriod",
              "type": "uint8"
            },
            {
              "internalType": "uint256",
              "name": "startDate",
              "type": "uint256"
            },
            {
              "internalType": "uint256",
              "name": "endDate",
              "type": "uint256"
            },
            {
              "internalType": "uint256",
              "name": "lastPaymentId",
              "type": "uint256"
            },
            {
              "internalType": "bool",
              "name": "autoRenew",
              "type": "bool"
            },
            {
              "internalType": "bool",
              "name": "active",
              "type": "bool"
            }
          ],
          "internalType": "struct SubscriptionManager.Subscription[]",
          "name": "",
          "type": "tuple[]"
        }
      ],
      "stateMutability": "view",
      "type": "function"
    },
    {
      "inputs": [
        {
          "internalType": "address",
          "name": "_user",
          "type": "address"
        }
      ],
      "name": "isActiveSubscription",
      "outputs": [
        {
          "internalType": "bool",
          "name": "",
          "type": "bool"
        }
      ],
      "stateMutability": "view",
      "type": "function"
    },
    {
      "inputs": [],
      "name": "nextSubscriptionId",
      "outputs": [
        {
          "internalType": "uint256",
          "name": "",
          "type": "uint256"
        }
      ],
      "stateMutability": "view",
      "type": "function"
    },
    {
      "inputs": [],
      "name": "owner",
      "outputs": [
        {
          "internalType": "address",
          "name": "",
          "type": "address"
        }
      ],
      "stateMutability": "view",
      "type": "function"
    },
    {
      "inputs": [],
      "name": "paymentProcessor",
      "outputs": [
        {
          "internalType": "contract PaymentProcessor",
          "name": "",
          "type": "address"
        }
      ],
      "stateMutability": "view",
      "type": "function"
    },
    {
      "inputs": [
        {
          "internalType": "enum SubscriptionManager.SubscriptionTier",
          "name": "_newTier",
          "type": "uint8"
        },
        {
          "internalType": "enum SubscriptionManager.BillingPeriod",
          "name": "_newPeriod",
          "type": "uint8"
        },
        {
          "internalType": "bool",
          "name": "_autoRenew",
          "type": "bool"
        }
      ],
      "name": "processTierChange",
      "outputs": [],
      "stateMutability": "payable",
      "type": "function"
    },
    {
      "inputs": [
        {
          "internalType": "enum SubscriptionManager.SubscriptionTier",
          "name": "_tier",
          "type": "uint8"
        },
        {
          "internalType": "enum SubscriptionManager.BillingPeriod",
          "name": "_period",
          "type": "uint8"
        },
        {
          "internalType": "bool",
          "name": "_autoRenew",
          "type": "bool"
        }
      ],
      "name": "purchaseSubscription",
      "outputs": [
        {
          "internalType": "uint256",
          "name": "",
          "type": "uint256"
        }
      ],
      "stateMutability": "payable",
      "type": "function"
    },
    {
      "inputs": [
        {
          "internalType": "address",
          "name": "",
          "type": "address"
        },
        {
          "internalType": "uint256",
          "name": "",
          "type": "uint256"
        }
      ],
      "name": "subscriptionHistory",
      "outputs": [
        {
          "internalType": "uint256",
          "name": "id",
          "type": "uint256"
        },
        {
          "internalType": "address",
          "name": "subscriber",
          "type": "address"
        },
        {
          "internalType": "enum SubscriptionManager.SubscriptionTier",
          "name": "tier",
          "type": "uint8"
        },
        {
          "internalType": "enum SubscriptionManager.BillingPeriod",
          "name": "billingPeriod",
          "type": "uint8"
        },
        {
          "internalType": "uint256",
          "name": "startDate",
          "type": "uint256"
        },
        {
          "internalType": "uint256",
          "name": "endDate",
          "type": "uint256"
        },
        {
          "internalType": "uint256",
          "name": "lastPaymentId",
          "type": "uint256"
        },
        {
          "internalType": "bool",
          "name": "autoRenew",
          "type": "bool"
        },
        {
          "internalType": "bool",
          "name": "active",
          "type": "bool"
        }
      ],
      "stateMutability": "view",
      "type": "function"
    },
    {
      "inputs": [
        {
          "internalType": "enum SubscriptionManager.SubscriptionTier",
          "name": "",
          "type": "uint8"
        }
      ],
      "name": "subscriptionPrices",
      "outputs": [
        {
          "internalType": "uint256",
          "name": "monthlyPrice",
          "type": "uint256"
        },
        {
          "internalType": "uint256",
          "name": "annualPrice",
          "type": "uint256"
        }
      ],
      "stateMutability": "view",
      "type": "function"
    },
    {
      "inputs": [
        {
          "internalType": "address",
          "name": "",
          "type": "address"
        }
      ],
      "name": "subscriptions",
      "outputs": [
        {
          "internalType": "uint256",
          "name": "id",
          "type": "uint256"
        },
        {
          "internalType": "address",
          "name": "subscriber",
          "type": "address"
        },
        {
          "internalType": "enum SubscriptionManager.SubscriptionTier",
          "name": "tier",
          "type": "uint8"
        },
        {
          "internalType": "enum SubscriptionManager.BillingPeriod",
          "name": "billingPeriod",
          "type": "uint8"
        },
        {
          "internalType": "uint256",
          "name": "startDate",
          "type": "uint256"
        },
        {
          "internalType": "uint256",
          "name": "endDate",
          "type": "uint256"
        },
        {
          "internalType": "uint256",
          "name": "lastPaymentId",
          "type": "uint256"
        },
        {
          "internalType": "bool",
          "name": "autoRenew",
          "type": "bool"
        },
        {
          "internalType": "bool",
          "name": "active",
          "type": "bool"
        }
      ],
      "stateMutability": "view",
      "type": "function"
    },
    {
      "inputs": [
        {
          "internalType": "address",
          "name": "_newOwner",
          "type": "address"
        }
      ],
      "name": "transferOwnership",
      "outputs": [],
      "stateMutability": "nonpayable",
      "type": "function"
    },
    {
      "inputs": [
        {
          "internalType": "enum SubscriptionManager.SubscriptionTier",
          "name": "_tier",
          "type": "uint8"
        },
        {
          "internalType": "uint256",
          "name": "_monthlyPrice",
          "type": "uint256"
        },
        {
          "internalType": "uint256",
          "name": "_annualPrice",
          "type": "uint256"
        }
      ],
      "name": "updatePrices",
      "outputs": [],
      "stateMutability": "nonpayable",
      "type": "function"
    }
  ],
  "bytecode": "0x60806040523480156200001157600080fd5b5060405162003bf038038062003bf083398181016040528101906200003791906200028e565b336000806101000a81548173ffffffffffffffffffffffffffffffffffffffff021916908373ffffffffffffffffffffffffffffffffffffffff16021790555080600160006101000a81548173ffffffffffffffffffffffffffffffffffffffff021916908373ffffffffffffffffffffffffffffffffffffffff1602179055506001600581905550604051806040016040528066b1a2bc2ec5000081526020016706f05b59d3b200008152506002600060016002811115620000ff57620000fe620002c0565b5b6002811115620001145762000113620002c0565b5b8152602001908152602001600020600082015181600001556020820151816001015590505060405180604001604052806702c68af0bb1400008152602001671bc16d674ec8000081525060026000600280811115620001785762000177620002c0565b5b60028111156200018d576200018c620002c0565b5b81526020019081526020016000206000820151816000015560208201518160010155905050604051806040016040528060008152602001600081525060026000806002811115620001e357620001e2620002c0565b5b6002811115620001f857620001f7620002c0565b5b8152602001908152602001600020600082015181600001556020820151816001015590505050620002ef565b600080fd5b600073ffffffffffffffffffffffffffffffffffffffff82169050919050565b6000620002568262000229565b9050919050565b620002688162000249565b81146200027457600080fd5b50565b60008151905062000288816200025d565b92915050565b600060208284031215620002a757620002a662000224565b5b6000620002b78482850162000277565b91505092915050565b7f4e487b7100000000000000000000000000000000000000000000000000000000600052602160045260246000fd5b6138f180620002ff6000396000f3fe6080604052600436106100e85760003560e01c8063adddacb01161008a578063f046395a11610059578063f046395a14610309578063f1c6bdf81461034e578063f2fde38b14610379578063ff277aa5146103a2576100e8565b8063adddacb014610269578063c16118d114610292578063d080adfa146102c2578063da58935f146102de576100e8565b806337f184d5116100c657806337f184d51461017e57806338e9e93e146101c35780638da5cb5b14610200578063a5508b6d1461022b576100e8565b80630cbebc24146100ed57806324e9edb01461012a5780633288c70a14610141575b600080fd5b3480156100f957600080fd5b50610114600480360381019061010f9190612712565b6103df565b60405161012191906128f8565b60405180910390f35b34801561013657600080fd5b5061013f610563565b005b34801561014d57600080fd5b5061016860048036038101906101639190612712565b61093c565b6040516101759190612923565b60405180910390f35b34801561018a57600080fd5b506101a560048036038101906101a0919061296a565b6109e3565b6040516101ba999897969594939291906129e6565b60405180910390f35b3480156101cf57600080fd5b506101ea60048036038101906101e59190612abd565b610aa2565b6040516101f79190612afd565b60405180910390f35b34801561020c57600080fd5b50610215610e4c565b6040516102229190612b18565b60405180910390f35b34801561023757600080fd5b50610252600480360381019061024d9190612b33565b610e70565b604051610260929190612b60565b60405180910390f35b34801561027557600080fd5b50610290600480360381019061028b9190612b89565b610e94565b005b6102ac60048036038101906102a79190612c08565b610fc5565b6040516102b99190612afd565b60405180910390f35b6102dc60048036038101906102d79190612c08565b611870565b005b3480156102ea57600080fd5b506102f3611e63565b6040516103009190612afd565b60405180910390f35b34801561031557600080fd5b50610330600480360381019061032b9190612712565b611e69565b604051610345999897969594939291906129e6565b60405180910390f35b34801561035a57600080fd5b50610363611f0b565b6040516103709190612cba565b60405180910390f35b34801561038557600080fd5b506103a0600480360381019061039b9190612712565b611f31565b005b3480156103ae57600080fd5b506103c960048036038101906103c49190612712565b612071565b6040516103d69190612e3c565b60405180910390f35b6103e7612625565b600360008373ffffffffffffffffffffffffffffffffffffffff1673ffffffffffffffffffffffffffffffffffffffff16815260200190815260200160002060405180610120016040529081600082015481526020016001820160009054906101000a900473ffffffffffffffffffffffffffffffffffffffff1673ffffffffffffffffffffffffffffffffffffffff1673ffffffffffffffffffffffffffffffffffffffff1681526020016001820160149054906101000a900460ff1660028111156104b7576104b6612767565b5b60028111156104c9576104c8612767565b5b81526020016001820160159054906101000a900460ff1660018111156104f2576104f1612767565b5b600181111561050457610503612767565b5b81526020016002820154815260200160038201548152602001600482015481526020016005820160009054906101000a900460ff161515151581526020016005820160019054906101000a900460ff1615151515815250509050919050565b600360003373ffffffffffffffffffffffffffffffffffffffff1673ffffffffffffffffffffffffffffffffffffffff16815260200190815260200160002060050160019054906101000a900460ff166105f2576040517f08c379a00000000000000000000000000000000000000000000000000000000081526004016105e990612ee1565b60405180910390fd5b600460003373ffffffffffffffffffffffffffffffffffffffff1673ffffffffffffffffffffffffffffffffffffffff168152602001908152602001600020600360003373ffffffffffffffffffffffffffffffffffffffff1673ffffffffffffffffffffffffffffffffffffffff1681526020019081526020016000209080600181540180825580915050600190039060005260206000209060060201600090919091909150600082015481600001556001820160009054906101000a900473ffffffffffffffffffffffffffffffffffffffff168160010160006101000a81548173ffffffffffffffffffffffffffffffffffffffff021916908373ffffffffffffffffffffffffffffffffffffffff1602179055506001820160149054906101000a900460ff168160010160146101000a81548160ff0219169083600281111561074257610741612767565b5b02179055506001820160159054906101000a900460ff168160010160156101000a81548160ff0219169083600181111561077f5761077e612767565b5b02179055506002820154816002015560038201548160030155600482015481600401556005820160009054906101000a900460ff168160050160006101000a81548160ff0219169083151502179055506005820160019054906101000a900460ff168160050160016101000a81548160ff02191690831515021790555050506000600360003373ffffffffffffffffffffffffffffffffffffffff1673ffffffffffffffffffffffffffffffffffffffff16815260200190815260200160002060050160016101000a81548160ff0219169083151502179055506000600360003373ffffffffffffffffffffffffffffffffffffffff1673ffffffffffffffffffffffffffffffffffffffff16815260200190815260200160002060050160006101000a81548160ff0219169083151502179055503373ffffffffffffffffffffffffffffffffffffffff16600360003373ffffffffffffffffffffffffffffffffffffffff1673ffffffffffffffffffffffffffffffffffffffff168152602001908152602001600020600001547f533734a768f070673b823079652464b7e002bb51cdf15e3108209f397425225f60405160405180910390a3565b6000600360008373ffffffffffffffffffffffffffffffffffffffff1673ffffffffffffffffffffffffffffffffffffffff16815260200190815260200160002060050160019054906101000a900460ff1680156109dc575042600360008473ffffffffffffffffffffffffffffffffffffffff1673ffffffffffffffffffffffffffffffffffffffff1681526020019081526020016000206003015410155b9050919050565b600460205281600052604060002081815481106109ff57600080fd5b9060005260206000209060060201600091509150508060000154908060010160009054906101000a900473ffffffffffffffffffffffffffffffffffffffff16908060010160149054906101000a900460ff16908060010160159054906101000a900460ff16908060020154908060030154908060040154908060050160009054906101000a900460ff16908060050160019054906101000a900460ff16905089565b6000600360003373ffffffffffffffffffffffffffffffffffffffff1673ffffffffffffffffffffffffffffffffffffffff16815260200190815260200160002060050160019054906101000a900460ff16610b33576040517f08c379a0000000000000000000000000000000000000000000000000000000008152600401610b2a90612ee1565b60405180910390fd5b6000600360003373ffffffffffffffffffffffffffffffffffffffff1673ffffffffffffffffffffffffffffffffffffffff16815260200190815260200160002060010160149054906101000a900460ff1690506000600360003373ffffffffffffffffffffffffffffffffffffffff1673ffffffffffffffffffffffffffffffffffffffff16815260200190815260200160002060010160159054906101000a900460ff16905060006002811115610bef57610bee612767565b5b856002811115610c0257610c01612767565b5b03610c1257600092505050610e46565b600042600360003373ffffffffffffffffffffffffffffffffffffffff1673ffffffffffffffffffffffffffffffffffffffff16815260200190815260200160002060030154610c629190612f30565b90506000806001811115610c7957610c78612767565b5b836001811115610c8c57610c8b612767565b5b14610cd15760026000856002811115610ca857610ca7612767565b5b6002811115610cba57610cb9612767565b5b815260200190815260200160002060010154610d0d565b60026000856002811115610ce857610ce7612767565b5b6002811115610cfa57610cf9612767565b5b8152602001908152602001600020600001545b90506000806001811115610d2457610d23612767565b5b876001811115610d3757610d36612767565b5b14610d7c5760026000896002811115610d5357610d52612767565b5b6002811115610d6557610d64612767565b5b815260200190815260200160002060010154610db8565b60026000896002811115610d9357610d92612767565b5b6002811115610da557610da4612767565b5b8152602001908152602001600020600001545b90506000806001811115610dcf57610dce612767565b5b856001811115610de257610de1612767565b5b14610df1576301e13380610df6565b62278d005b63ffffffff1690506000818585610e0d9190612f64565b610e179190612fd5565b9050808311610e30576000975050505050505050610e46565b8083610e3c9190612f30565b9750505050505050505b92915050565b60008054906101000a900473ffffffffffffffffffffffffffffffffffffffff1681565b60026020528060005260406000206000915090508060000154908060010154905082565b60008054906101000a900473ffffffffffffffffffffffffffffffffffffffff1673ffffffffffffffffffffffffffffffffffffffff163373ffffffffffffffffffffffffffffffffffffffff1614610f22576040517f08c379a0000000000000000000000000000000000000000000000000000000008152600401610f1990613078565b60405180910390fd5b60405180604001604052808381526020018281525060026000856002811115610f4e57610f4d612767565b5b6002811115610f6057610f5f612767565b5b815260200190815260200160002060008201518160000155602082015181600101559050507f0632454824820b4b1fd6f29fdc288d3b437e7ae937523b584eed6967b39e7595838383604051610fb893929190613098565b60405180910390a1505050565b6000806002811115610fda57610fd9612767565b5b846002811115610fed57610fec612767565b5b148061101d57506001600281111561100857611007612767565b5b84600281111561101b5761101a612767565b5b145b8061104b575060028081111561103657611035612767565b5b84600281111561104957611048612767565b5b145b61108a576040517f08c379a000000000000000000000000000000000000000000000000000000000815260040161108190613141565b60405180910390fd5b600080600181111561109f5761109e612767565b5b8460018111156110b2576110b1612767565b5b146110f757600260008660028111156110ce576110cd612767565b5b60028111156110e0576110df612767565b5b815260200190815260200160002060010154611133565b6002600086600281111561110e5761110d612767565b5b60028111156111205761111f612767565b5b8152602001908152602001600020600001545b90506000600281111561114957611148612767565b5b85600281111561115c5761115b612767565b5b146111a557803410156111a4576040517f08c379a000000000000000000000000000000000000000000000000000000000815260040161119b906131d3565b60405180910390fd5b5b6000600560008154809291906111ba906131f3565b91905055905060008060018111156111d5576111d4612767565b5b8660018111156111e8576111e7612767565b5b146111f7576301e133806111fc565b62278d005b63ffffffff16905060008142611212919061323b565b9050600080600281111561122957611228612767565b5b89600281111561123c5761123b612767565b5b1415801561124a5750600034115b1561133257600061125a8561223a565b6112638b61239a565b61126c8b612514565b60405160200161127e93929190613410565b6040516020818303038152906040529050600160009054906101000a900473ffffffffffffffffffffffffffffffffffffffff1673ffffffffffffffffffffffffffffffffffffffff1663b7655d7034836040518363ffffffff1660e01b81526004016112eb91906134b7565b60206040518083038185885af1158015611309573d6000803e3d6000fd5b50505050506040513d601f19601f8201168201806040525081019061132e91906134ee565b9150505b6000600360003373ffffffffffffffffffffffffffffffffffffffff1673ffffffffffffffffffffffffffffffffffffffff168152602001908152602001600020600001541180156113d05750600360003373ffffffffffffffffffffffffffffffffffffffff1673ffffffffffffffffffffffffffffffffffffffff16815260200190815260200160002060050160019054906101000a900460ff165b1561163d57600460003373ffffffffffffffffffffffffffffffffffffffff1673ffffffffffffffffffffffffffffffffffffffff168152602001908152602001600020600360003373ffffffffffffffffffffffffffffffffffffffff1673ffffffffffffffffffffffffffffffffffffffff1681526020019081526020016000209080600181540180825580915050600190039060005260206000209060060201600090919091909150600082015481600001556001820160009054906101000a900473ffffffffffffffffffffffffffffffffffffffff168160010160006101000a81548173ffffffffffffffffffffffffffffffffffffffff021916908373ffffffffffffffffffffffffffffffffffffffff1602179055506001820160149054906101000a900460ff168160010160146101000a81548160ff0219169083600281111561152557611524612767565b5b02179055506001820160159054906101000a900460ff168160010160156101000a81548160ff0219169083600181111561156257611561612767565b5b02179055506002820154816002015560038201548160030155600482015481600401556005820160009054906101000a900460ff168160050160006101000a81548160ff0219169083151502179055506005820160019054906101000a900460ff168160050160016101000a81548160ff02191690831515021790555050506000600360003373ffffffffffffffffffffffffffffffffffffffff1673ffffffffffffffffffffffffffffffffffffffff16815260200190815260200160002060050160016101000a81548160ff0219169083151502179055505b6040518061012001604052808581526020013373ffffffffffffffffffffffffffffffffffffffff1681526020018a600281111561167e5761167d612767565b5b815260200189600181111561169657611695612767565b5b8152602001428152602001838152602001828152602001881515815260200160011515815250600360003373ffffffffffffffffffffffffffffffffffffffff1673ffffffffffffffffffffffffffffffffffffffff1681526020019081526020016000206000820151816000015560208201518160010160006101000a81548173ffffffffffffffffffffffffffffffffffffffff021916908373ffffffffffffffffffffffffffffffffffffffff16021790555060408201518160010160146101000a81548160ff0219169083600281111561177757611776612767565b5b021790555060608201518160010160156101000a81548160ff021916908360018111156117a7576117a6612767565b5b02179055506080820151816002015560a0820151816003015560c0820151816004015560e08201518160050160006101000a81548160ff0219169083151502179055506101008201518160050160016101000a81548160ff0219169083151502179055509050503373ffffffffffffffffffffffffffffffffffffffff16847f7244c907ba5d3a2c04120992d88a9ef718d01fdbd7cb96726bc8fc85504392138b8b866040516118599392919061351b565b60405180910390a383955050505050509392505050565b600360003373ffffffffffffffffffffffffffffffffffffffff1673ffffffffffffffffffffffffffffffffffffffff16815260200190815260200160002060050160019054906101000a900460ff166118ff576040517f08c379a00000000000000000000000000000000000000000000000000000000081526004016118f690612ee1565b60405180910390fd5b6000600360003373ffffffffffffffffffffffffffffffffffffffff1673ffffffffffffffffffffffffffffffffffffffff16815260200190815260200160002060010160149054906101000a900460ff16905060003073ffffffffffffffffffffffffffffffffffffffff166338e9e93e86866040518363ffffffff1660e01b8152600401611990929190613552565b602060405180830381865afa1580156119ad573d6000803e3d6000fd5b505050506040513d601f19601f820116820180604052508101906119d191906134ee565b90506000811115611a205780341015611a1f576040517f08c379a0000000000000000000000000000000000000000000000000000000008152600401611a16906135ed565b60405180910390fd5b5b60008082118015611a315750600034115b15611b65576000611a83600360003373ffffffffffffffffffffffffffffffffffffffff1673ffffffffffffffffffffffffffffffffffffffff1681526020019081526020016000206000015461223a565b611a8c8561239a565b611a958961239a565b611a9e89612514565b604051602001611ab194939291906136f1565b6040516020818303038152906040529050600160009054906101000a900473ffffffffffffffffffffffffffffffffffffffff1673ffffffffffffffffffffffffffffffffffffffff1663b7655d7034836040518363ffffffff1660e01b8152600401611b1e91906134b7565b60206040518083038185885af1158015611b3c573d6000803e3d6000fd5b50505050506040513d601f19601f82011682018060405250810190611b6191906134ee565b9150505b6000806001811115611b7a57611b79612767565b5b866001811115611b8d57611b8c612767565b5b14611b9c576301e13380611ba1565b62278d005b63ffffffff16905060008142611bb7919061323b565b905087600360003373ffffffffffffffffffffffffffffffffffffffff1673ffffffffffffffffffffffffffffffffffffffff16815260200190815260200160002060010160146101000a81548160ff02191690836002811115611c1e57611c1d612767565b5b021790555086600360003373ffffffffffffffffffffffffffffffffffffffff1673ffffffffffffffffffffffffffffffffffffffff16815260200190815260200160002060010160156101000a81548160ff02191690836001811115611c8857611c87612767565b5b021790555042600360003373ffffffffffffffffffffffffffffffffffffffff1673ffffffffffffffffffffffffffffffffffffffff1681526020019081526020016000206002018190555080600360003373ffffffffffffffffffffffffffffffffffffffff1673ffffffffffffffffffffffffffffffffffffffff168152602001908152602001600020600301819055506000841115611d6c5782600360003373ffffffffffffffffffffffffffffffffffffffff1673ffffffffffffffffffffffffffffffffffffffff168152602001908152602001600020600401819055505b85600360003373ffffffffffffffffffffffffffffffffffffffff1673ffffffffffffffffffffffffffffffffffffffff16815260200190815260200160002060050160006101000a81548160ff0219169083151502179055503373ffffffffffffffffffffffffffffffffffffffff16600360003373ffffffffffffffffffffffffffffffffffffffff1673ffffffffffffffffffffffffffffffffffffffff168152602001908152602001600020600001547fa4e049a1e41a1ca2a615919d2a04ad2c62f376f4a86a04f85e3ba461dfdb8f0b878b604051611e51929190613771565b60405180910390a35050505050505050565b60055481565b60036020528060005260406000206000915090508060000154908060010160009054906101000a900473ffffffffffffffffffffffffffffffffffffffff16908060010160149054906101000a900460ff16908060010160159054906101000a900460ff16908060020154908060030154908060040154908060050160009054906101000a900460ff16908060050160019054906101000a900460ff16905089565b600160009054906101000a900473ffffffffffffffffffffffffffffffffffffffff1681565b60008054906101000a900473ffffffffffffffffffffffffffffffffffffffff1673ffffffffffffffffffffffffffffffffffffffff163373ffffffffffffffffffffffffffffffffffffffff1614611fbf576040517f08c379a0000000000000000000000000000000000000000000000000000000008152600401611fb690613078565b60405180910390fd5b600073ffffffffffffffffffffffffffffffffffffffff168173ffffffffffffffffffffffffffffffffffffffff160361202e576040517f08c379a00000000000000000000000000000000000000000000000000000000081526004016120259061380c565b60405180910390fd5b806000806101000a81548173ffffffffffffffffffffffffffffffffffffffff021916908373ffffffffffffffffffffffffffffffffffffffff16021790555050565b6060600460008373ffffffffffffffffffffffffffffffffffffffff1673ffffffffffffffffffffffffffffffffffffffff168152602001908152602001600020805480602002602001604051908101604052809291908181526020016000905b8282101561222f578382906000526020600020906006020160405180610120016040529081600082015481526020016001820160009054906101000a900473ffffffffffffffffffffffffffffffffffffffff1673ffffffffffffffffffffffffffffffffffffffff1673ffffffffffffffffffffffffffffffffffffffff1681526020016001820160149054906101000a900460ff16600281111561217b5761217a612767565b5b600281111561218d5761218c612767565b5b81526020016001820160159054906101000a900460ff1660018111156121b6576121b5612767565b5b60018111156121c8576121c7612767565b5b81526020016002820154815260200160038201548152602001600482015481526020016005820160009054906101000a900460ff161515151581526020016005820160019054906101000a900460ff161515151581525050815260200190600101906120d2565b505050509050919050565b606060008203612281576040518060400160405280600181526020017f30000000000000000000000000000000000000000000000000000000000000008152509050612395565b600082905060005b600082146122b357808061229c906131f3565b915050600a826122ac9190612fd5565b9150612289565b60008167ffffffffffffffff8111156122cf576122ce61382c565b5b6040519080825280601f01601f1916602001820160405280156123015781602001600182028036833780820191505090505b5090505b6000851461238e5760018261231a9190612f30565b9150600a85612329919061385b565b6030612335919061323b565b60f81b81838151811061234b5761234a61388c565b5b60200101907effffffffffffffffffffffffffffffffffffffffffffffffffffffffffffff1916908160001a905350600a856123879190612fd5565b9450612305565b8093505050505b919050565b6060600060028111156123b0576123af612767565b5b8260028111156123c3576123c2612767565b5b03612405576040518060400160405280600481526020017f4672656500000000000000000000000000000000000000000000000000000000815250905061250f565b6001600281111561241957612418612767565b5b82600281111561242c5761242b612767565b5b0361246e576040518060400160405280600381526020017f50726f0000000000000000000000000000000000000000000000000000000000815250905061250f565b60028081111561248157612480612767565b5b82600281111561249457612493612767565b5b036124d6576040518060400160405280600a81526020017f456e746572707269736500000000000000000000000000000000000000000000815250905061250f565b6040518060400160405280600781526020017f556e6b6e6f776e0000000000000000000000000000000000000000000000000081525090505b919050565b60606000600181111561252a57612529612767565b5b82600181111561253d5761253c612767565b5b0361257f576040518060400160405280600781526020017f4d6f6e74686c79000000000000000000000000000000000000000000000000008152509050612620565b60018081111561259257612591612767565b5b8260018111156125a5576125a4612767565b5b036125e7576040518060400160405280600681526020017f416e6e75616c00000000000000000000000000000000000000000000000000008152509050612620565b6040518060400160405280600781526020017f556e6b6e6f776e0000000000000000000000000000000000000000000000000081525090505b919050565b60405180610120016040528060008152602001600073ffffffffffffffffffffffffffffffffffffffff1681526020016000600281111561266957612668612767565b5b81526020016000600181111561268257612681612767565b5b81526020016000815260200160008152602001600081526020016000151581526020016000151581525090565b600080fd5b600073ffffffffffffffffffffffffffffffffffffffff82169050919050565b60006126df826126b4565b9050919050565b6126ef816126d4565b81146126fa57600080fd5b50565b60008135905061270c816126e6565b92915050565b600060208284031215612728576127276126af565b5b6000612736848285016126fd565b91505092915050565b6000819050919050565b6127528161273f565b82525050565b612761816126d4565b82525050565b7f4e487b7100000000000000000000000000000000000000000000000000000000600052602160045260246000fd5b600381106127a7576127a6612767565b5b50565b60008190506127b882612796565b919050565b60006127c8826127aa565b9050919050565b6127d8816127bd565b82525050565b600281106127ef576127ee612767565b5b50565b6000819050612800826127de565b919050565b6000612810826127f2565b9050919050565b61282081612805565b82525050565b60008115159050919050565b61283b81612826565b82525050565b610120820160008201516128586000850182612749565b50602082015161286b6020850182612758565b50604082015161287e60408501826127cf565b5060608201516128916060850182612817565b5060808201516128a46080850182612749565b5060a08201516128b760a0850182612749565b5060c08201516128ca60c0850182612749565b5060e08201516128dd60e0850182612832565b506101008201516128f2610100850182612832565b50505050565b60006101208201905061290e6000830184612841565b92915050565b61291d81612826565b82525050565b60006020820190506129386000830184612914565b92915050565b6129478161273f565b811461295257600080fd5b50565b6000813590506129648161293e565b92915050565b60008060408385031215612981576129806126af565b5b600061298f858286016126fd565b92505060206129a085828601612955565b9150509250929050565b6129b38161273f565b82525050565b6129c2816126d4565b82525050565b6129d1816127bd565b82525050565b6129e081612805565b82525050565b6000610120820190506129fc600083018c6129aa565b612a09602083018b6129b9565b612a16604083018a6129c8565b612a2360608301896129d7565b612a3060808301886129aa565b612a3d60a08301876129aa565b612a4a60c08301866129aa565b612a5760e0830185612914565b612a65610100830184612914565b9a9950505050505050505050565b60038110612a8057600080fd5b50565b600081359050612a9281612a73565b92915050565b60028110612aa557600080fd5b50565b600081359050612ab781612a98565b92915050565b60008060408385031215612ad457612ad36126af565b5b6000612ae285828601612a83565b9250506020612af385828601612aa8565b9150509250929050565b6000602082019050612b1260008301846129aa565b92915050565b6000602082019050612b2d60008301846129b9565b92915050565b600060208284031215612b4957612b486126af565b5b6000612b5784828501612a83565b91505092915050565b6000604082019050612b7560008301856129aa565b612b8260208301846129aa565b9392505050565b600080600060608486031215612ba257612ba16126af565b5b6000612bb086828701612a83565b9350506020612bc186828701612955565b9250506040612bd286828701612955565b9150509250925092565b612be581612826565b8114612bf057600080fd5b50565b600081359050612c0281612bdc565b92915050565b600080600060608486031215612c2157612c206126af565b5b6000612c2f86828701612a83565b9350506020612c4086828701612aa8565b9250506040612c5186828701612bf3565b9150509250925092565b6000819050919050565b6000612c80612c7b612c76846126b4565b612c5b565b6126b4565b9050919050565b6000612c9282612c65565b9050919050565b6000612ca482612c87565b9050919050565b612cb481612c99565b82525050565b6000602082019050612ccf6000830184612cab565b92915050565b600081519050919050565b600082825260208201905092915050565b6000819050602082019050919050565b61012082016000820151612d186000850182612749565b506020820151612d2b6020850182612758565b506040820151612d3e60408501826127cf565b506060820151612d516060850182612817565b506080820151612d646080850182612749565b5060a0820151612d7760a0850182612749565b5060c0820151612d8a60c0850182612749565b5060e0820151612d9d60e0850182612832565b50610100820151612db2610100850182612832565b50505050565b6000612dc48383612d01565b6101208301905092915050565b6000602082019050919050565b6000612de982612cd5565b612df38185612ce0565b9350612dfe83612cf1565b8060005b83811015612e2f578151612e168882612db8565b9750612e2183612dd1565b925050600181019050612e02565b5085935050505092915050565b60006020820190508181036000830152612e568184612dde565b905092915050565b600082825260208201905092915050565b7f537562736372697074696f6e4d616e616765723a206e6f20616374697665207360008201527f7562736372697074696f6e000000000000000000000000000000000000000000602082015250565b6000612ecb602b83612e5e565b9150612ed682612e6f565b604082019050919050565b60006020820190508181036000830152612efa81612ebe565b9050919050565b7f4e487b7100000000000000000000000000000000000000000000000000000000600052601160045260246000fd5b6000612f3b8261273f565b9150612f468361273f565b9250828203905081811115612f5e57612f5d612f01565b5b92915050565b6000612f6f8261273f565b9150612f7a8361273f565b9250828202612f888161273f565b91508282048414831517612f9f57612f9e612f01565b5b5092915050565b7f4e487b7100000000000000000000000000000000000000000000000000000000600052601260045260246000fd5b6000612fe08261273f565b9150612feb8361273f565b925082612ffb57612ffa612fa6565b5b828204905092915050565b7f537562736372697074696f6e4d616e616765723a2063616c6c6572206973206e60008201527f6f7420746865206f776e65720000000000000000000000000000000000000000602082015250565b6000613062602c83612e5e565b915061306d82613006565b604082019050919050565b6000602082019050818103600083015261309181613055565b9050919050565b60006060820190506130ad60008301866129c8565b6130ba60208301856129aa565b6130c760408301846129aa565b949350505050565b7f537562736372697074696f6e4d616e616765723a20696e76616c69642074696560008201527f7200000000000000000000000000000000000000000000000000000000000000602082015250565b600061312b602183612e5e565b9150613136826130cf565b604082019050919050565b6000602082019050818103600083015261315a8161311e565b9050919050565b7f537562736372697074696f6e4d616e616765723a20696e73756666696369656e60008201527f74207061796d656e7420616d6f756e7400000000000000000000000000000000602082015250565b60006131bd603083612e5e565b91506131c882613161565b604082019050919050565b600060208201905081810360008301526131ec816131b0565b9050919050565b60006131fe8261273f565b91507fffffffffffffffffffffffffffffffffffffffffffffffffffffffffffffffff82036132305761322f612f01565b5b600182019050919050565b60006132468261273f565b91506132518361273f565b925082820190508082111561326957613268612f01565b5b92915050565b600081905092915050565b7f7b22737562736372697074696f6e4964223a2200000000000000000000000000600082015250565b60006132b060138361326f565b91506132bb8261327a565b601382019050919050565b600081519050919050565b60005b838110156132ef5780820151818401526020810190506132d4565b60008484015250505050565b6000613306826132c6565b613310818561326f565b93506133208185602086016132d1565b80840191505092915050565b7f222c2274696572223a2200000000000000000000000000000000000000000000600082015250565b6000613362600a8361326f565b915061336d8261332c565b600a82019050919050565b7f222c22706572696f64223a220000000000000000000000000000000000000000600082015250565b60006133ae600c8361326f565b91506133b982613378565b600c82019050919050565b7f227d000000000000000000000000000000000000000000000000000000000000600082015250565b60006133fa60028361326f565b9150613405826133c4565b600282019050919050565b600061341b826132a3565b915061342782866132fb565b915061343282613355565b915061343e82856132fb565b9150613449826133a1565b915061345582846132fb565b9150613460826133ed565b9150819050949350505050565b6000601f19601f8301169050919050565b6000613489826132c6565b6134938185612e5e565b93506134a38185602086016132d1565b6134ac8161346d565b840191505092915050565b600060208201905081810360008301526134d1818461347e565b905092915050565b6000815190506134e88161293e565b92915050565b600060208284031215613504576135036126af565b5b6000613512848285016134d9565b91505092915050565b600060608201905061353060008301866129c8565b61353d60208301856129d7565b61354a60408301846129aa565b949350505050565b600060408201905061356760008301856129c8565b61357460208301846129d7565b9392505050565b7f537562736372697074696f6e4d616e616765723a20696e73756666696369656e60008201527f74207061796d656e7420666f722074696572206368616e676500000000000000602082015250565b60006135d7603983612e5e565b91506135e28261357b565b604082019050919050565b60006020820190508181036000830152613606816135ca565b9050919050565b7f222c22616374696f6e223a22746965725f6368616e6765222c00000000000000600082015250565b600061364360198361326f565b915061364e8261360d565b601982019050919050565b7f226f6c6454696572223a22000000000000000000000000000000000000000000600082015250565b600061368f600b8361326f565b915061369a82613659565b600b82019050919050565b7f222c226e657754696572223a2200000000000000000000000000000000000000600082015250565b60006136db600d8361326f565b91506136e6826136a5565b600d82019050919050565b60006136fc826132a3565b915061370882876132fb565b915061371382613636565b915061371e82613682565b915061372a82866132fb565b9150613735826136ce565b915061374182856132fb565b915061374c826133a1565b915061375882846132fb565b9150613763826133ed565b915081905095945050505050565b600060408201905061378660008301856129c8565b61379360208301846129c8565b9392505050565b7f537562736372697074696f6e4d616e616765723a206e6577206f776e6572206360008201527f616e6e6f74206265207a65726f20616464726573730000000000000000000000602082015250565b60006137f6603583612e5e565b91506138018261379a565b604082019050919050565b60006020820190508181036000830152613825816137e9565b9050919050565b7f4e487b7100000000000000000000000000000000000000000000000000000000600052604160045260246000fd5b60006138668261273f565b91506138718361273f565b92508261388157613880612fa6565b5b828206905092915050565b7f4e487b7100000000000000000000000000000000000000000000000000000000600052603260045260246000fdfea2646970667358221220b3b42ec7909bc15dba3e3d49e82be07e7d20eab5be8bc9d273ea8a6fe8c199d664736f6c63430008110033",
  "linkReferences": {},
  "deployedLinkReferences": {}
}