{
  "_format": "hh-sol-artifact-1",
  "contractName": "EscrowContract",
  "sourceName": "contracts/EscrowContract.sol",
  "abi": [
    {
      "inputs": [
        {
          "internalType": "address",
          "name": "_accessControlAddress",
          "type": "address"
        }
      ],
      "stateMutability": "nonpayable",
      "type": "constructor"
    },
    {
      "anonymous": false,
      "inputs": [
        {
          "indexed": true,
          "internalType": "uint256",
          "name": "escrowId",
          "type": "uint256"
        },
        {
          "indexed": true,
          "internalType": "address",
          "name": "payer",
          "type": "address"
        },
        {
          "indexed": true,
          "internalType": "address",
          "name": "payee",
          "type": "address"
        },
        {
          "indexed": false,
          "internalType": "uint256",
          "name": "amount",
          "type": "uint256"
        }
      ],
      "name": "EscrowCreated",
      "type": "event"
    },
    {
      "anonymous": false,
      "inputs": [
        {
          "indexed": true,
          "internalType": "uint256",
          "name": "escrowId",
          "type": "uint256"
        },
        {
          "indexed": false,
          "internalType": "string",
          "name": "reason",
          "type": "string"
        }
      ],
      "name": "EscrowDisputed",
      "type": "event"
    },
    {
      "anonymous": false,
      "inputs": [
        {
          "indexed": true,
          "internalType": "uint256",
          "name": "escrowId",
          "type": "uint256"
        },
        {
          "indexed": true,
          "internalType": "address",
          "name": "payer",
          "type": "address"
        },
        {
          "indexed": false,
          "internalType": "uint256",
          "name": "amount",
          "type": "uint256"
        }
      ],
      "name": "EscrowFunded",
      "type": "event"
    },
    {
      "anonymous": false,
      "inputs": [
        {
          "indexed": true,
          "internalType": "uint256",
          "name": "escrowId",
          "type": "uint256"
        },
        {
          "indexed": true,
          "internalType": "address",
          "name": "payer",
          "type": "address"
        },
        {
          "indexed": false,
          "internalType": "uint256",
          "name": "amount",
          "type": "uint256"
        }
      ],
      "name": "EscrowRefunded",
      "type": "event"
    },
    {
      "anonymous": false,
      "inputs": [
        {
          "indexed": true,
          "internalType": "uint256",
          "name": "escrowId",
          "type": "uint256"
        },
        {
          "indexed": true,
          "internalType": "address",
          "name": "payee",
          "type": "address"
        },
        {
          "indexed": false,
          "internalType": "uint256",
          "name": "amount",
          "type": "uint256"
        }
      ],
      "name": "EscrowReleased",
      "type": "event"
    },
    {
      "anonymous": false,
      "inputs": [
        {
          "indexed": true,
          "internalType": "uint256",
          "name": "escrowId",
          "type": "uint256"
        },
        {
          "indexed": false,
          "internalType": "enum EscrowContract.EscrowStatus",
          "name": "resolution",
          "type": "uint8"
        }
      ],
      "name": "EscrowResolved",
      "type": "event"
    },
    {
      "inputs": [],
      "name": "accessControl",
      "outputs": [
        {
          "internalType": "contract AccessControl",
          "name": "",
          "type": "address"
        }
      ],
      "stateMutability": "view",
      "type": "function"
    },
    {
      "inputs": [
        {
          "internalType": "address",
          "name": "_payee",
          "type": "address"
        },
        {
          "internalType": "string",
          "name": "_metadata",
          "type": "string"
        }
      ],
      "name": "createEscrow",
      "outputs": [
        {
          "internalType": "uint256",
          "name": "",
          "type": "uint256"
        }
      ],
      "stateMutability": "payable",
      "type": "function"
    },
    {
      "inputs": [
        {
          "internalType": "uint256",
          "name": "_escrowId",
          "type": "uint256"
        },
        {
          "internalType": "string",
          "name": "_reason",
          "type": "string"
        }
      ],
      "name": "disputeEscrow",
      "outputs": [],
      "stateMutability": "nonpayable",
      "type": "function"
    },
    {
      "inputs": [],
      "name": "emergencyWithdraw",
      "outputs": [],
      "stateMutability": "nonpayable",
      "type": "function"
    },
    {
      "inputs": [
        {
          "internalType": "uint256",
          "name": "",
          "type": "uint256"
        }
      ],
      "name": "escrows",
      "outputs": [
        {
          "internalType": "uint256",
          "name": "id",
          "type": "uint256"
        },
        {
          "internalType": "address",
          "name": "payer",
          "type": "address"
        },
        {
          "internalType": "address",
          "name": "payee",
          "type": "address"
        },
        {
          "internalType": "uint256",
          "name": "amount",
          "type": "uint256"
        },
        {
          "internalType": "uint256",
          "name": "createdAt",
          "type": "uint256"
        },
        {
          "internalType": "uint256",
          "name": "releasedAt",
          "type": "uint256"
        },
        {
          "internalType": "enum EscrowContract.EscrowStatus",
          "name": "status",
          "type": "uint8"
        },
        {
          "internalType": "string",
          "name": "metadata",
          "type": "string"
        }
      ],
      "stateMutability": "view",
      "type": "function"
    },
    {
      "inputs": [
        {
          "internalType": "uint256",
          "name": "_escrowId",
          "type": "uint256"
        }
      ],
      "name": "getEscrow",
      "outputs": [
        {
          "components": [
            {
              "internalType": "uint256",
              "name": "id",
              "type": "uint256"
            },
            {
              "internalType": "address",
              "name": "payer",
              "type": "address"
            },
            {
              "internalType": "address",
              "name": "payee",
              "type": "address"
            },
            {
              "internalType": "uint256",
              "name": "amount",
              "type": "uint256"
            },
            {
              "internalType": "uint256",
              "name": "createdAt",
              "type": "uint256"
            },
            {
              "internalType": "uint256",
              "name": "releasedAt",
              "type": "uint256"
            },
            {
              "internalType": "enum EscrowContract.EscrowStatus",
              "name": "status",
              "type": "uint8"
            },
            {
              "internalType": "string",
              "name": "metadata",
              "type": "string"
            }
          ],
          "internalType": "struct EscrowContract.Escrow",
          "name": "",
          "type": "tuple"
        }
      ],
      "stateMutability": "view",
      "type": "function"
    },
    {
      "inputs": [],
      "name": "nextEscrowId",
      "outputs": [
        {
          "internalType": "uint256",
          "name": "",
          "type": "uint256"
        }
      ],
      "stateMutability": "view",
      "type": "function"
    },
    {
      "inputs": [],
      "name": "owner",
      "outputs": [
        {
          "internalType": "address",
          "name": "",
          "type": "address"
        }
      ],
      "stateMutability": "view",
      "type": "function"
    },
    {
      "inputs": [
        {
          "internalType": "uint256",
          "name": "_escrowId",
          "type": "uint256"
        }
      ],
      "name": "refundEscrow",
      "outputs": [],
      "stateMutability": "nonpayable",
      "type": "function"
    },
    {
      "inputs": [
        {
          "internalType": "uint256",
          "name": "_escrowId",
          "type": "uint256"
        }
      ],
      "name": "releaseEscrow",
      "outputs": [],
      "stateMutability": "nonpayable",
      "type": "function"
    },
    {
      "inputs": [
        {
          "internalType": "uint256",
          "name": "_escrowId",
          "type": "uint256"
        },
        {
          "internalType": "enum EscrowContract.EscrowStatus",
          "name": "_resolution",
          "type": "uint8"
        }
      ],
      "name": "resolveDispute",
      "outputs": [],
      "stateMutability": "nonpayable",
      "type": "function"
    },
    {
      "inputs": [
        {
          "internalType": "address",
          "name": "_newOwner",
          "type": "address"
        }
      ],
      "name": "transferOwnership",
      "outputs": [],
      "stateMutability": "nonpayable",
      "type": "function"
    }
  ],
  "bytecode": "0x60806040523480156200001157600080fd5b506040516200354238038062003542833981810160405281019062000037919062000131565b336000806101000a81548173ffffffffffffffffffffffffffffffffffffffff021916908373ffffffffffffffffffffffffffffffffffffffff16021790555080600160006101000a81548173ffffffffffffffffffffffffffffffffffffffff021916908373ffffffffffffffffffffffffffffffffffffffff16021790555060016003819055505062000163565b600080fd5b600073ffffffffffffffffffffffffffffffffffffffff82169050919050565b6000620000f982620000cc565b9050919050565b6200010b81620000ec565b81146200011757600080fd5b50565b6000815190506200012b8162000100565b92915050565b6000602082840312156200014a5762000149620000c7565b5b60006200015a848285016200011a565b91505092915050565b6133cf80620001736000396000f3fe6080604052600436106100a75760003560e01c80638da5cb5b116100645780638da5cb5b146101dc5780639f5644fd14610207578063db2e21bc14610230578063e55e421114610247578063ed65316414610270578063f2fde38b14610299576100a7565b8063012f52ee146100ac57806313007d55146100f0578063356f9dfd1461011b5780633f407b4f146101445780637d19e5961461017457806389cb29dd146101b1575b600080fd5b3480156100b857600080fd5b506100d360048036038101906100ce9190611dda565b6102c2565b6040516100e7989796959493929190611f5e565b60405180910390f35b3480156100fc57600080fd5b506101056103df565b6040516101129190612042565b60405180910390f35b34801561012757600080fd5b50610142600480360381019061013d9190611dda565b610405565b005b61015e600480360381019061015991906121be565b610804565b60405161016b919061221a565b60405180910390f35b34801561018057600080fd5b5061019b60048036038101906101969190611dda565b610b1d565b6040516101a8919061235c565b60405180910390f35b3480156101bd57600080fd5b506101c6610d44565b6040516101d3919061221a565b60405180910390f35b3480156101e857600080fd5b506101f1610d4a565b6040516101fe919061237e565b60405180910390f35b34801561021357600080fd5b5061022e60048036038101906102299190612399565b610d6e565b005b34801561023c57600080fd5b50610245610f99565b005b34801561025357600080fd5b5061026e6004803603810190610269919061241a565b611140565b005b34801561027c57600080fd5b5061029760048036038101906102929190611dda565b611755565b005b3480156102a557600080fd5b506102c060048036038101906102bb919061245a565b611bcd565b005b60026020528060005260406000206000915090508060000154908060010160009054906101000a900473ffffffffffffffffffffffffffffffffffffffff16908060020160009054906101000a900473ffffffffffffffffffffffffffffffffffffffff16908060030154908060040154908060050154908060060160009054906101000a900460ff169080600701805461035c906124b6565b80601f0160208091040260200160405190810160405280929190818152602001828054610388906124b6565b80156103d55780601f106103aa576101008083540402835291602001916103d5565b820191906000526020600020905b8154815290600101906020018083116103b857829003601f168201915b5050505050905088565b600160009054906101000a900473ffffffffffffffffffffffffffffffffffffffff1681565b600160009054906101000a900473ffffffffffffffffffffffffffffffffffffffff1673ffffffffffffffffffffffffffffffffffffffff166391d14854600160009054906101000a900473ffffffffffffffffffffffffffffffffffffffff1673ffffffffffffffffffffffffffffffffffffffff166359183f006040518163ffffffff1660e01b8152600401602060405180830381865afa1580156104b0573d6000803e3d6000fd5b505050506040513d601f19601f820116820180604052508101906104d4919061251d565b336040518363ffffffff1660e01b81526004016104f2929190612559565b602060405180830381865afa15801561050f573d6000803e3d6000fd5b505050506040513d601f19601f8201168201806040525081019061053391906125ba565b610572576040517f08c379a000000000000000000000000000000000000000000000000000000000815260040161056990612659565b60405180910390fd5b6000600260008381526020019081526020016000209050818160000154146105cf576040517f08c379a00000000000000000000000000000000000000000000000000000000081526004016105c6906126eb565b60405180910390fd5b600160058111156105e3576105e2611e57565b5b8160060160009054906101000a900460ff16600581111561060757610606611e57565b5b148061064857506004600581111561062257610621611e57565b5b8160060160009054906101000a900460ff16600581111561064657610645611e57565b5b145b610687576040517f08c379a000000000000000000000000000000000000000000000000000000000815260040161067e9061277d565b60405180910390fd5b60038160060160006101000a81548160ff021916908360058111156106af576106ae611e57565b5b021790555060008160010160009054906101000a900473ffffffffffffffffffffffffffffffffffffffff1673ffffffffffffffffffffffffffffffffffffffff168260030154604051610702906127ce565b60006040518083038185875af1925050503d806000811461073f576040519150601f19603f3d011682016040523d82523d6000602084013e610744565b606091505b5050905080610788576040517f08c379a000000000000000000000000000000000000000000000000000000000815260040161077f90612855565b60405180910390fd5b8160010160009054906101000a900473ffffffffffffffffffffffffffffffffffffffff1673ffffffffffffffffffffffffffffffffffffffff16837feac97bc1917fcedc984e3d0671d4e83b359890323d5d1c2de32b28d17c356ced84600301546040516107f7919061221a565b60405180910390a3505050565b60008073ffffffffffffffffffffffffffffffffffffffff168373ffffffffffffffffffffffffffffffffffffffff1603610874576040517f08c379a000000000000000000000000000000000000000000000000000000000815260040161086b906128e7565b60405180910390fd5b600034116108b7576040517f08c379a00000000000000000000000000000000000000000000000000000000081526004016108ae90612979565b60405180910390fd5b6000600360008154809291906108cc906129c8565b9190505590506040518061010001604052808281526020013373ffffffffffffffffffffffffffffffffffffffff1681526020018573ffffffffffffffffffffffffffffffffffffffff168152602001348152602001428152602001600081526020016001600581111561094357610942611e57565b5b815260200184815250600260008381526020019081526020016000206000820151816000015560208201518160010160006101000a81548173ffffffffffffffffffffffffffffffffffffffff021916908373ffffffffffffffffffffffffffffffffffffffff16021790555060408201518160020160006101000a81548173ffffffffffffffffffffffffffffffffffffffff021916908373ffffffffffffffffffffffffffffffffffffffff160217905550606082015181600301556080820151816004015560a0820151816005015560c08201518160060160006101000a81548160ff02191690836005811115610a4057610a3f611e57565b5b021790555060e0820151816007019081610a5a9190612bb2565b509050508373ffffffffffffffffffffffffffffffffffffffff163373ffffffffffffffffffffffffffffffffffffffff16827f9405ad0a6208539879349284d71265479b1623846f70303da1f9890d6e8c10a734604051610abc919061221a565b60405180910390a43373ffffffffffffffffffffffffffffffffffffffff16817f4a2cd88ec7a748d5b20b3512d7249c67745777b219009075c745923684e9653d34604051610b0b919061221a565b60405180910390a38091505092915050565b610b25611d0d565b81600260008481526020019081526020016000206000015414610b7d576040517f08c379a0000000000000000000000000000000000000000000000000000000008152600401610b74906126eb565b60405180910390fd5b6002600083815260200190815260200160002060405180610100016040529081600082015481526020016001820160009054906101000a900473ffffffffffffffffffffffffffffffffffffffff1673ffffffffffffffffffffffffffffffffffffffff1673ffffffffffffffffffffffffffffffffffffffff1681526020016002820160009054906101000a900473ffffffffffffffffffffffffffffffffffffffff1673ffffffffffffffffffffffffffffffffffffffff1673ffffffffffffffffffffffffffffffffffffffff1681526020016003820154815260200160048201548152602001600582015481526020016006820160009054906101000a900460ff166005811115610c9557610c94611e57565b5b6005811115610ca757610ca6611e57565b5b8152602001600782018054610cbb906124b6565b80601f0160208091040260200160405190810160405280929190818152602001828054610ce7906124b6565b8015610d345780601f10610d0957610100808354040283529160200191610d34565b820191906000526020600020905b815481529060010190602001808311610d1757829003601f168201915b5050505050815250509050919050565b60035481565b60008054906101000a900473ffffffffffffffffffffffffffffffffffffffff1681565b600060026000848152602001908152602001600020905082816000015414610dcb576040517f08c379a0000000000000000000000000000000000000000000000000000000008152600401610dc2906126eb565b60405180910390fd5b60016005811115610ddf57610dde611e57565b5b8160060160009054906101000a900460ff166005811115610e0357610e02611e57565b5b14610e43576040517f08c379a0000000000000000000000000000000000000000000000000000000008152600401610e3a90612cf6565b60405180910390fd5b8060010160009054906101000a900473ffffffffffffffffffffffffffffffffffffffff1673ffffffffffffffffffffffffffffffffffffffff163373ffffffffffffffffffffffffffffffffffffffff161480610ef057508060020160009054906101000a900473ffffffffffffffffffffffffffffffffffffffff1673ffffffffffffffffffffffffffffffffffffffff163373ffffffffffffffffffffffffffffffffffffffff16145b610f2f576040517f08c379a0000000000000000000000000000000000000000000000000000000008152600401610f2690612d88565b60405180910390fd5b60048160060160006101000a81548160ff02191690836005811115610f5757610f56611e57565b5b0217905550827f22db602bec1073a3d13019704523c53c578f4954b288ce08b8884c1d5b1ce67a83604051610f8c9190612da8565b60405180910390a2505050565b60008054906101000a900473ffffffffffffffffffffffffffffffffffffffff1673ffffffffffffffffffffffffffffffffffffffff163373ffffffffffffffffffffffffffffffffffffffff1614611027576040517f08c379a000000000000000000000000000000000000000000000000000000000815260040161101e90612e3c565b60405180910390fd5b60004790506000811161106f576040517f08c379a000000000000000000000000000000000000000000000000000000000815260040161106690612ece565b60405180910390fd5b60008060009054906101000a900473ffffffffffffffffffffffffffffffffffffffff1673ffffffffffffffffffffffffffffffffffffffff16826040516110b6906127ce565b60006040518083038185875af1925050503d80600081146110f3576040519150601f19603f3d011682016040523d82523d6000602084013e6110f8565b606091505b505090508061113c576040517f08c379a000000000000000000000000000000000000000000000000000000000815260040161113390612f60565b60405180910390fd5b5050565b600160009054906101000a900473ffffffffffffffffffffffffffffffffffffffff1673ffffffffffffffffffffffffffffffffffffffff166391d14854600160009054906101000a900473ffffffffffffffffffffffffffffffffffffffff1673ffffffffffffffffffffffffffffffffffffffff166359183f006040518163ffffffff1660e01b8152600401602060405180830381865afa1580156111eb573d6000803e3d6000fd5b505050506040513d601f19601f8201168201806040525081019061120f919061251d565b336040518363ffffffff1660e01b815260040161122d929190612559565b602060405180830381865afa15801561124a573d6000803e3d6000fd5b505050506040513d601f19601f8201168201806040525081019061126e91906125ba565b6112ad576040517f08c379a00000000000000000000000000000000000000000000000000000000081526004016112a490612659565b60405180910390fd5b60006002600084815260200190815260200160002090508281600001541461130a576040517f08c379a0000000000000000000000000000000000000000000000000000000008152600401611301906126eb565b60405180910390fd5b6004600581111561131e5761131d611e57565b5b8160060160009054906101000a900460ff16600581111561134257611341611e57565b5b14611382576040517f08c379a000000000000000000000000000000000000000000000000000000000815260040161137990612ff2565b60405180910390fd5b6002600581111561139657611395611e57565b5b8260058111156113a9576113a8611e57565b5b14806113d95750600360058111156113c4576113c3611e57565b5b8260058111156113d7576113d6611e57565b5b145b611418576040517f08c379a000000000000000000000000000000000000000000000000000000000815260040161140f90613084565b60405180910390fd5b6002600581111561142c5761142b611e57565b5b82600581111561143f5761143e611e57565b5b036115955760008160020160009054906101000a900473ffffffffffffffffffffffffffffffffffffffff1673ffffffffffffffffffffffffffffffffffffffff168260030154604051611492906127ce565b60006040518083038185875af1925050503d80600081146114cf576040519150601f19603f3d011682016040523d82523d6000602084013e6114d4565b606091505b5050905080611518576040517f08c379a000000000000000000000000000000000000000000000000000000000815260040161150f90613116565b60405180910390fd5b8160020160009054906101000a900473ffffffffffffffffffffffffffffffffffffffff1673ffffffffffffffffffffffffffffffffffffffff16847f6244ed823ca6be0f11bc890c3fafcf3c29cb23420c14243642e930b5e07e6d0a8460030154604051611587919061221a565b60405180910390a3506116e2565b60008160010160009054906101000a900473ffffffffffffffffffffffffffffffffffffffff1673ffffffffffffffffffffffffffffffffffffffff1682600301546040516115e3906127ce565b60006040518083038185875af1925050503d8060008114611620576040519150601f19603f3d011682016040523d82523d6000602084013e611625565b606091505b5050905080611669576040517f08c379a0000000000000000000000000000000000000000000000000000000008152600401611660906131a8565b60405180910390fd5b8160010160009054906101000a900473ffffffffffffffffffffffffffffffffffffffff1673ffffffffffffffffffffffffffffffffffffffff16847feac97bc1917fcedc984e3d0671d4e83b359890323d5d1c2de32b28d17c356ced84600301546040516116d8919061221a565b60405180910390a3505b60058160060160006101000a81548160ff0219169083600581111561170a57611709611e57565b5b0217905550428160050181905550827f0d9bbf17b25c57ed7617ec043a68ae2d31f699311b27d5c86318aa720c5ab8288360405161174891906131c8565b60405180910390a2505050565b6000600260008381526020019081526020016000209050818160000154146117b2576040517f08c379a00000000000000000000000000000000000000000000000000000000081526004016117a9906126eb565b60405180910390fd5b600160058111156117c6576117c5611e57565b5b8160060160009054906101000a900460ff1660058111156117ea576117e9611e57565b5b1461182a576040517f08c379a000000000000000000000000000000000000000000000000000000000815260040161182190612cf6565b60405180910390fd5b8060010160009054906101000a900473ffffffffffffffffffffffffffffffffffffffff1673ffffffffffffffffffffffffffffffffffffffff163373ffffffffffffffffffffffffffffffffffffffff1614806118d3575060008054906101000a900473ffffffffffffffffffffffffffffffffffffffff1673ffffffffffffffffffffffffffffffffffffffff163373ffffffffffffffffffffffffffffffffffffffff16145b80611a085750600160009054906101000a900473ffffffffffffffffffffffffffffffffffffffff1673ffffffffffffffffffffffffffffffffffffffff166391d14854600160009054906101000a900473ffffffffffffffffffffffffffffffffffffffff1673ffffffffffffffffffffffffffffffffffffffff166359183f006040518163ffffffff1660e01b8152600401602060405180830381865afa158015611984573d6000803e3d6000fd5b505050506040513d601f19601f820116820180604052508101906119a8919061251d565b336040518363ffffffff1660e01b81526004016119c6929190612559565b602060405180830381865afa1580156119e3573d6000803e3d6000fd5b505050506040513d601f19601f82011682018060405250810190611a0791906125ba565b5b611a47576040517f08c379a0000000000000000000000000000000000000000000000000000000008152600401611a3e90613255565b60405180910390fd5b60028160060160006101000a81548160ff02191690836005811115611a6f57611a6e611e57565b5b021790555042816005018190555060008160020160009054906101000a900473ffffffffffffffffffffffffffffffffffffffff1673ffffffffffffffffffffffffffffffffffffffff168260030154604051611acb906127ce565b60006040518083038185875af1925050503d8060008114611b08576040519150601f19603f3d011682016040523d82523d6000602084013e611b0d565b606091505b5050905080611b51576040517f08c379a0000000000000000000000000000000000000000000000000000000008152600401611b48906132e7565b60405180910390fd5b8160020160009054906101000a900473ffffffffffffffffffffffffffffffffffffffff1673ffffffffffffffffffffffffffffffffffffffff16837f6244ed823ca6be0f11bc890c3fafcf3c29cb23420c14243642e930b5e07e6d0a8460030154604051611bc0919061221a565b60405180910390a3505050565b60008054906101000a900473ffffffffffffffffffffffffffffffffffffffff1673ffffffffffffffffffffffffffffffffffffffff163373ffffffffffffffffffffffffffffffffffffffff1614611c5b576040517f08c379a0000000000000000000000000000000000000000000000000000000008152600401611c5290612e3c565b60405180910390fd5b600073ffffffffffffffffffffffffffffffffffffffff168173ffffffffffffffffffffffffffffffffffffffff1603611cca576040517f08c379a0000000000000000000000000000000000000000000000000000000008152600401611cc190613379565b60405180910390fd5b806000806101000a81548173ffffffffffffffffffffffffffffffffffffffff021916908373ffffffffffffffffffffffffffffffffffffffff16021790555050565b60405180610100016040528060008152602001600073ffffffffffffffffffffffffffffffffffffffff168152602001600073ffffffffffffffffffffffffffffffffffffffff16815260200160008152602001600081526020016000815260200160006005811115611d8357611d82611e57565b5b8152602001606081525090565b6000604051905090565b600080fd5b600080fd5b6000819050919050565b611db781611da4565b8114611dc257600080fd5b50565b600081359050611dd481611dae565b92915050565b600060208284031215611df057611def611d9a565b5b6000611dfe84828501611dc5565b91505092915050565b611e1081611da4565b82525050565b600073ffffffffffffffffffffffffffffffffffffffff82169050919050565b6000611e4182611e16565b9050919050565b611e5181611e36565b82525050565b7f4e487b7100000000000000000000000000000000000000000000000000000000600052602160045260246000fd5b60068110611e9757611e96611e57565b5b50565b6000819050611ea882611e86565b919050565b6000611eb882611e9a565b9050919050565b611ec881611ead565b82525050565b600081519050919050565b600082825260208201905092915050565b60005b83811015611f08578082015181840152602081019050611eed565b60008484015250505050565b6000601f19601f8301169050919050565b6000611f3082611ece565b611f3a8185611ed9565b9350611f4a818560208601611eea565b611f5381611f14565b840191505092915050565b600061010082019050611f74600083018b611e07565b611f81602083018a611e48565b611f8e6040830189611e48565b611f9b6060830188611e07565b611fa86080830187611e07565b611fb560a0830186611e07565b611fc260c0830185611ebf565b81810360e0830152611fd48184611f25565b90509998505050505050505050565b6000819050919050565b6000612008612003611ffe84611e16565b611fe3565b611e16565b9050919050565b600061201a82611fed565b9050919050565b600061202c8261200f565b9050919050565b61203c81612021565b82525050565b60006020820190506120576000830184612033565b92915050565b61206681611e36565b811461207157600080fd5b50565b6000813590506120838161205d565b92915050565b600080fd5b600080fd5b7f4e487b7100000000000000000000000000000000000000000000000000000000600052604160045260246000fd5b6120cb82611f14565b810181811067ffffffffffffffff821117156120ea576120e9612093565b5b80604052505050565b60006120fd611d90565b905061210982826120c2565b919050565b600067ffffffffffffffff82111561212957612128612093565b5b61213282611f14565b9050602081019050919050565b82818337600083830152505050565b600061216161215c8461210e565b6120f3565b90508281526020810184848401111561217d5761217c61208e565b5b61218884828561213f565b509392505050565b600082601f8301126121a5576121a4612089565b5b81356121b584826020860161214e565b91505092915050565b600080604083850312156121d5576121d4611d9a565b5b60006121e385828601612074565b925050602083013567ffffffffffffffff81111561220457612203611d9f565b5b61221085828601612190565b9150509250929050565b600060208201905061222f6000830184611e07565b92915050565b61223e81611da4565b82525050565b61224d81611e36565b82525050565b61225c81611ead565b82525050565b600082825260208201905092915050565b600061227e82611ece565b6122888185612262565b9350612298818560208601611eea565b6122a181611f14565b840191505092915050565b6000610100830160008301516122c56000860182612235565b5060208301516122d86020860182612244565b5060408301516122eb6040860182612244565b5060608301516122fe6060860182612235565b5060808301516123116080860182612235565b5060a083015161232460a0860182612235565b5060c083015161233760c0860182612253565b5060e083015184820360e086015261234f8282612273565b9150508091505092915050565b6000602082019050818103600083015261237681846122ac565b905092915050565b60006020820190506123936000830184611e48565b92915050565b600080604083850312156123b0576123af611d9a565b5b60006123be85828601611dc5565b925050602083013567ffffffffffffffff8111156123df576123de611d9f565b5b6123eb85828601612190565b9150509250929050565b6006811061240257600080fd5b50565b600081359050612414816123f5565b92915050565b6000806040838503121561243157612430611d9a565b5b600061243f85828601611dc5565b925050602061245085828601612405565b9150509250929050565b6000602082840312156124705761246f611d9a565b5b600061247e84828501612074565b91505092915050565b7f4e487b7100000000000000000000000000000000000000000000000000000000600052602260045260246000fd5b600060028204905060018216806124ce57607f821691505b6020821081036124e1576124e0612487565b5b50919050565b6000819050919050565b6124fa816124e7565b811461250557600080fd5b50565b600081519050612517816124f1565b92915050565b60006020828403121561253357612532611d9a565b5b600061254184828501612508565b91505092915050565b612553816124e7565b82525050565b600060408201905061256e600083018561254a565b61257b6020830184611e48565b9392505050565b60008115159050919050565b61259781612582565b81146125a257600080fd5b50565b6000815190506125b48161258e565b92915050565b6000602082840312156125d0576125cf611d9a565b5b60006125de848285016125a5565b91505092915050565b7f457363726f77436f6e74726163743a2063616c6c657220646f6573206e6f742060008201527f68617665207061796d656e74206d616e6167657220726f6c6500000000000000602082015250565b6000612643603983611ed9565b915061264e826125e7565b604082019050919050565b6000602082019050818103600083015261267281612636565b9050919050565b7f457363726f77436f6e74726163743a20657363726f7720646f6573206e6f742060008201527f6578697374000000000000000000000000000000000000000000000000000000602082015250565b60006126d5602583611ed9565b91506126e082612679565b604082019050919050565b60006020820190508181036000830152612704816126c8565b9050919050565b7f457363726f77436f6e74726163743a20657363726f77206e6f7420696e20726560008201527f66756e6461626c65207374617465000000000000000000000000000000000000602082015250565b6000612767602e83611ed9565b91506127728261270b565b604082019050919050565b600060208201905081810360008301526127968161275a565b9050919050565b600081905092915050565b50565b60006127b860008361279d565b91506127c3826127a8565b600082019050919050565b60006127d9826127ab565b9150819050919050565b7f457363726f77436f6e74726163743a20726566756e64207472616e736665722060008201527f6661696c65640000000000000000000000000000000000000000000000000000602082015250565b600061283f602683611ed9565b915061284a826127e3565b604082019050919050565b6000602082019050818103600083015261286e81612832565b9050919050565b7f457363726f77436f6e74726163743a2070617965652063616e6e6f742062652060008201527f7a65726f20616464726573730000000000000000000000000000000000000000602082015250565b60006128d1602c83611ed9565b91506128dc82612875565b604082019050919050565b60006020820190508181036000830152612900816128c4565b9050919050565b7f457363726f77436f6e74726163743a20657363726f7720616d6f756e74206d7560008201527f73742062652067726561746572207468616e2030000000000000000000000000602082015250565b6000612963603483611ed9565b915061296e82612907565b604082019050919050565b6000602082019050818103600083015261299281612956565b9050919050565b7f4e487b7100000000000000000000000000000000000000000000000000000000600052601160045260246000fd5b60006129d382611da4565b91507fffffffffffffffffffffffffffffffffffffffffffffffffffffffffffffffff8203612a0557612a04612999565b5b600182019050919050565b60008190508160005260206000209050919050565b60006020601f8301049050919050565b600082821b905092915050565b600060088302612a727fffffffffffffffffffffffffffffffffffffffffffffffffffffffffffffffff82612a35565b612a7c8683612a35565b95508019841693508086168417925050509392505050565b6000612aaf612aaa612aa584611da4565b611fe3565b611da4565b9050919050565b6000819050919050565b612ac983612a94565b612add612ad582612ab6565b848454612a42565b825550505050565b600090565b612af2612ae5565b612afd818484612ac0565b505050565b5b81811015612b2157612b16600082612aea565b600181019050612b03565b5050565b601f821115612b6657612b3781612a10565b612b4084612a25565b81016020851015612b4f578190505b612b63612b5b85612a25565b830182612b02565b50505b505050565b600082821c905092915050565b6000612b8960001984600802612b6b565b1980831691505092915050565b6000612ba28383612b78565b9150826002028217905092915050565b612bbb82611ece565b67ffffffffffffffff811115612bd457612bd3612093565b5b612bde82546124b6565b612be9828285612b25565b600060209050601f831160018114612c1c5760008415612c0a578287015190505b612c148582612b96565b865550612c7c565b601f198416612c2a86612a10565b60005b82811015612c5257848901518255600182019150602085019450602081019050612c2d565b86831015612c6f5784890151612c6b601f891682612b78565b8355505b6001600288020188555050505b505050505050565b7f457363726f77436f6e74726163743a20657363726f77206e6f7420696e20667560008201527f6e64656420737461746500000000000000000000000000000000000000000000602082015250565b6000612ce0602a83611ed9565b9150612ceb82612c84565b604082019050919050565b60006020820190508181036000830152612d0f81612cd3565b9050919050565b7f457363726f77436f6e74726163743a206f6e6c79207061796572206f7220706160008201527f7965652063616e206469737075746520657363726f7700000000000000000000602082015250565b6000612d72603683611ed9565b9150612d7d82612d16565b604082019050919050565b60006020820190508181036000830152612da181612d65565b9050919050565b60006020820190508181036000830152612dc28184611f25565b905092915050565b7f457363726f77436f6e74726163743a2063616c6c6572206973206e6f7420746860008201527f65206f776e657200000000000000000000000000000000000000000000000000602082015250565b6000612e26602783611ed9565b9150612e3182612dca565b604082019050919050565b60006020820190508181036000830152612e5581612e19565b9050919050565b7f457363726f77436f6e74726163743a206e6f2062616c616e636520746f20776960008201527f7468647261770000000000000000000000000000000000000000000000000000602082015250565b6000612eb8602683611ed9565b9150612ec382612e5c565b604082019050919050565b60006020820190508181036000830152612ee781612eab565b9050919050565b7f457363726f77436f6e74726163743a207769746864726177616c206661696c6560008201527f6400000000000000000000000000000000000000000000000000000000000000602082015250565b6000612f4a602183611ed9565b9150612f5582612eee565b604082019050919050565b60006020820190508181036000830152612f7981612f3d565b9050919050565b7f457363726f77436f6e74726163743a20657363726f77206e6f7420696e20646960008201527f7370757465642073746174650000000000000000000000000000000000000000602082015250565b6000612fdc602c83611ed9565b9150612fe782612f80565b604082019050919050565b6000602082019050818103600083015261300b81612fcf565b9050919050565b7f457363726f77436f6e74726163743a20696e76616c6964207265736f6c75746960008201527f6f6e207374617475730000000000000000000000000000000000000000000000602082015250565b600061306e602983611ed9565b915061307982613012565b604082019050919050565b6000602082019050818103600083015261309d81613061565b9050919050565b7f457363726f77436f6e74726163743a207265736f6c7574696f6e2072656c656160008201527f7365207472616e73666572206661696c65640000000000000000000000000000602082015250565b6000613100603283611ed9565b915061310b826130a4565b604082019050919050565b6000602082019050818103600083015261312f816130f3565b9050919050565b7f457363726f77436f6e74726163743a207265736f6c7574696f6e20726566756e60008201527f64207472616e73666572206661696c6564000000000000000000000000000000602082015250565b6000613192603183611ed9565b915061319d82613136565b604082019050919050565b600060208201905081810360008301526131c181613185565b9050919050565b60006020820190506131dd6000830184611ebf565b92915050565b7f457363726f77436f6e74726163743a2063616c6c6572206e6f7420617574686f60008201527f72697a656420746f2072656c6561736520657363726f77000000000000000000602082015250565b600061323f603783611ed9565b915061324a826131e3565b604082019050919050565b6000602082019050818103600083015261326e81613232565b9050919050565b7f457363726f77436f6e74726163743a2072656c65617365207472616e7366657260008201527f206661696c656400000000000000000000000000000000000000000000000000602082015250565b60006132d1602783611ed9565b91506132dc82613275565b604082019050919050565b60006020820190508181036000830152613300816132c4565b9050919050565b7f457363726f77436f6e74726163743a206e6577206f776e65722063616e6e6f7460008201527f206265207a65726f206164647265737300000000000000000000000000000000602082015250565b6000613363603083611ed9565b915061336e82613307565b604082019050919050565b6000602082019050818103600083015261339281613356565b905091905056fea26469706673582212203f076937cc40b671bc553f8bbc757eb13f129c4aea7dc8f77e1f01c346d6df9764736f6c63430008110033",
  "linkReferences": {},
  "deployedLinkReferences": {}
}